{
  "contractName": "CandyBox",
  "abi": [
    {
      "constant": true,
      "inputs": [],
      "name": "candyIdIndex_",
      "outputs": [
        {
          "name": "",
          "type": "uint256"
        }
      ],
      "payable": false,
      "stateMutability": "view",
      "type": "function"
    },
    {
      "constant": true,
      "inputs": [],
      "name": "roleCandyManager",
      "outputs": [
        {
          "name": "",
          "type": "address"
        }
      ],
      "payable": false,
      "stateMutability": "view",
      "type": "function"
    },
    {
      "constant": false,
      "inputs": [],
      "name": "acceptOwnership",
      "outputs": [],
      "payable": false,
      "stateMutability": "nonpayable",
      "type": "function"
    },
    {
      "constant": true,
      "inputs": [],
      "name": "owner",
      "outputs": [
        {
          "name": "",
          "type": "address"
        }
      ],
      "payable": false,
      "stateMutability": "view",
      "type": "function"
    },
    {
      "constant": true,
      "inputs": [],
      "name": "newOwner",
      "outputs": [
        {
          "name": "",
          "type": "address"
        }
      ],
      "payable": false,
      "stateMutability": "view",
      "type": "function"
    },
    {
      "constant": false,
      "inputs": [
        {
          "name": "_newOwner",
          "type": "address"
        }
      ],
      "name": "transferOwnership",
      "outputs": [],
      "payable": false,
      "stateMutability": "nonpayable",
      "type": "function"
    },
    {
      "constant": true,
      "inputs": [],
      "name": "token",
      "outputs": [
        {
          "name": "",
          "type": "address"
        }
      ],
      "payable": false,
      "stateMutability": "view",
      "type": "function"
    },
    {
      "inputs": [],
      "payable": false,
      "stateMutability": "nonpayable",
      "type": "constructor"
    },
    {
      "anonymous": false,
      "inputs": [
        {
          "indexed": true,
          "name": "_from",
          "type": "address"
        },
        {
          "indexed": true,
          "name": "_to",
          "type": "address"
        }
      ],
      "name": "OwnershipTransferred",
      "type": "event"
    },
    {
      "constant": false,
      "inputs": [
        {
          "name": "pause",
          "type": "bool"
        }
      ],
      "name": "setPause",
      "outputs": [],
      "payable": false,
      "stateMutability": "nonpayable",
      "type": "function"
    },
    {
      "constant": false,
      "inputs": [
        {
          "name": "addr",
          "type": "address"
        }
      ],
      "name": "setCandyManager",
      "outputs": [],
      "payable": false,
      "stateMutability": "nonpayable",
      "type": "function"
    },
    {
      "constant": false,
      "inputs": [
        {
          "name": "addr",
          "type": "address"
        },
        {
          "name": "name",
          "type": "string"
        },
        {
          "name": "total",
          "type": "uint256"
        },
        {
          "name": "once",
          "type": "uint256"
        },
        {
          "name": "imageUrl",
          "type": "string"
        },
        {
          "name": "bgUrl",
          "type": "string"
        },
        {
          "name": "title",
          "type": "string"
        },
        {
          "name": "introduction",
          "type": "string"
        },
        {
          "name": "link",
          "type": "string"
        },
        {
          "name": "order",
          "type": "uint8"
        }
      ],
      "name": "addCandy",
      "outputs": [],
      "payable": false,
      "stateMutability": "nonpayable",
      "type": "function"
    },
    {
      "constant": false,
      "inputs": [
        {
          "name": "id",
          "type": "uint256"
        },
        {
          "name": "addr",
          "type": "address"
        },
        {
          "name": "name",
          "type": "string"
        },
        {
          "name": "total",
          "type": "uint256"
        },
        {
          "name": "once",
          "type": "uint256"
        },
        {
          "name": "imageUrl",
          "type": "string"
        },
        {
          "name": "bgUrl",
          "type": "string"
        },
        {
          "name": "title",
          "type": "string"
        },
        {
          "name": "introduction",
          "type": "string"
        },
        {
          "name": "link",
          "type": "string"
        },
        {
          "name": "order",
          "type": "uint8"
        }
      ],
      "name": "editCandy",
      "outputs": [],
      "payable": false,
      "stateMutability": "nonpayable",
      "type": "function"
    },
    {
      "constant": false,
      "inputs": [
        {
          "name": "id",
          "type": "uint256"
        }
      ],
      "name": "delCandy",
      "outputs": [],
      "payable": false,
      "stateMutability": "nonpayable",
      "type": "function"
    },
    {
      "constant": false,
      "inputs": [
        {
          "name": "id",
          "type": "uint256"
        },
        {
          "name": "order",
          "type": "uint8"
        },
        {
          "name": "isDeleted",
          "type": "uint8"
        }
      ],
      "name": "editPubCandy",
      "outputs": [],
      "payable": false,
      "stateMutability": "nonpayable",
      "type": "function"
    },
    {
      "constant": false,
      "inputs": [
        {
          "name": "id",
          "type": "uint256"
        },
        {
          "name": "addr",
          "type": "address"
        }
      ],
      "name": "editAddress",
      "outputs": [],
      "payable": false,
      "stateMutability": "nonpayable",
      "type": "function"
    },
    {
      "constant": false,
      "inputs": [
        {
          "name": "id",
          "type": "uint256"
        },
        {
          "name": "name",
          "type": "string"
        }
      ],
      "name": "editName",
      "outputs": [],
      "payable": false,
      "stateMutability": "nonpayable",
      "type": "function"
    },
    {
      "constant": false,
      "inputs": [
        {
          "name": "id",
          "type": "uint256"
        },
        {
          "name": "total",
          "type": "uint256"
        }
      ],
      "name": "editTotal",
      "outputs": [],
      "payable": false,
      "stateMutability": "nonpayable",
      "type": "function"
    },
    {
      "constant": false,
      "inputs": [
        {
          "name": "id",
          "type": "uint256"
        },
        {
          "name": "once",
          "type": "uint256"
        }
      ],
      "name": "editOnce",
      "outputs": [],
      "payable": false,
      "stateMutability": "nonpayable",
      "type": "function"
    },
    {
      "constant": false,
      "inputs": [
        {
          "name": "id",
          "type": "uint256"
        },
        {
          "name": "imageUrl",
          "type": "string"
        }
      ],
      "name": "editImageUrl",
      "outputs": [],
      "payable": false,
      "stateMutability": "nonpayable",
      "type": "function"
    },
    {
      "constant": false,
      "inputs": [
        {
          "name": "id",
          "type": "uint256"
        },
        {
          "name": "bgUrl",
          "type": "string"
        }
      ],
      "name": "editBgUrl",
      "outputs": [],
      "payable": false,
      "stateMutability": "nonpayable",
      "type": "function"
    },
    {
      "constant": false,
      "inputs": [
        {
          "name": "id",
          "type": "uint256"
        },
        {
          "name": "title",
          "type": "string"
        }
      ],
      "name": "editTitle",
      "outputs": [],
      "payable": false,
      "stateMutability": "nonpayable",
      "type": "function"
    },
    {
      "constant": false,
      "inputs": [
        {
          "name": "id",
          "type": "uint256"
        },
        {
          "name": "introduction",
          "type": "string"
        }
      ],
      "name": "editIntroduction",
      "outputs": [],
      "payable": false,
      "stateMutability": "nonpayable",
      "type": "function"
    },
    {
      "constant": false,
      "inputs": [
        {
          "name": "id",
          "type": "uint256"
        },
        {
          "name": "link",
          "type": "string"
        }
      ],
      "name": "editLink",
      "outputs": [],
      "payable": false,
      "stateMutability": "nonpayable",
      "type": "function"
    },
    {
      "constant": true,
      "inputs": [
        {
          "name": "id",
          "type": "uint256"
        }
      ],
      "name": "getCandy",
      "outputs": [
        {
          "name": "",
          "type": "address"
        },
        {
          "name": "",
          "type": "string"
        },
        {
          "name": "",
          "type": "uint256"
        },
        {
          "name": "",
          "type": "uint256"
        },
        {
          "name": "",
          "type": "uint256"
        }
      ],
      "payable": false,
      "stateMutability": "view",
      "type": "function"
    },
    {
      "constant": true,
      "inputs": [
        {
          "name": "_id",
          "type": "uint256"
        }
      ],
      "name": "getCandyDetail",
      "outputs": [
        {
          "name": "",
          "type": "string"
        },
        {
          "name": "",
          "type": "string"
        },
        {
          "name": "",
          "type": "string"
        },
        {
          "name": "",
          "type": "string"
        },
        {
          "name": "",
          "type": "string"
        },
        {
          "name": "",
          "type": "uint8"
        },
        {
          "name": "",
          "type": "uint8"
        }
      ],
      "payable": false,
      "stateMutability": "view",
      "type": "function"
    },
    {
      "constant": false,
      "inputs": [
        {
          "name": "id",
          "type": "uint256"
        }
      ],
      "name": "receive",
      "outputs": [],
      "payable": true,
      "stateMutability": "payable",
      "type": "function"
    },
    {
      "constant": false,
      "inputs": [
        {
          "name": "_token",
          "type": "address"
        },
        {
          "name": "_to",
          "type": "address"
        },
        {
          "name": "_amount",
          "type": "uint256"
        }
      ],
      "name": "transferCandy",
      "outputs": [
        {
          "name": "success",
          "type": "bool"
        }
      ],
      "payable": false,
      "stateMutability": "nonpayable",
      "type": "function"
    },
    {
      "constant": true,
      "inputs": [],
      "name": "total",
      "outputs": [
        {
          "name": "number",
          "type": "uint256"
        }
      ],
      "payable": false,
      "stateMutability": "view",
      "type": "function"
    },
    {
      "constant": true,
      "inputs": [],
      "name": "maxNumbers",
      "outputs": [
        {
          "name": "number",
          "type": "uint256"
        }
      ],
      "payable": false,
      "stateMutability": "view",
      "type": "function"
    },
    {
      "constant": true,
      "inputs": [
        {
          "name": "addr",
          "type": "address"
        }
      ],
      "name": "myNumbers",
      "outputs": [
        {
          "name": "number",
          "type": "uint256"
        }
      ],
      "payable": false,
      "stateMutability": "view",
      "type": "function"
    },
    {
      "constant": true,
      "inputs": [
        {
          "name": "addr",
          "type": "address"
        }
      ],
      "name": "myLastTime",
      "outputs": [
        {
          "name": "time",
          "type": "uint256"
        }
      ],
      "payable": false,
      "stateMutability": "view",
      "type": "function"
    },
    {
      "constant": true,
      "inputs": [
        {
          "name": "addr",
          "type": "address"
        }
      ],
      "name": "myLastReceive",
      "outputs": [
        {
          "name": "num",
          "type": "uint256"
        },
        {
          "name": "time",
          "type": "uint256"
        },
        {
          "name": "left",
          "type": "uint256"
        }
      ],
      "payable": false,
      "stateMutability": "view",
      "type": "function"
    },
    {
      "constant": false,
      "inputs": [
        {
          "name": "addr",
          "type": "address"
        }
      ],
      "name": "addBlacklist",
      "outputs": [],
      "payable": false,
      "stateMutability": "nonpayable",
      "type": "function"
    },
    {
      "constant": false,
      "inputs": [
        {
          "name": "addr",
          "type": "address"
        }
      ],
      "name": "delBlacklist",
      "outputs": [],
      "payable": false,
      "stateMutability": "nonpayable",
      "type": "function"
    },
    {
      "constant": true,
      "inputs": [
        {
          "name": "addr",
          "type": "address"
        }
      ],
      "name": "inBlacklist",
      "outputs": [
        {
          "name": "isin",
          "type": "bool"
        }
      ],
      "payable": false,
      "stateMutability": "view",
      "type": "function"
    },
    {
      "constant": true,
      "inputs": [
        {
          "name": "addr",
          "type": "address"
        }
      ],
      "name": "canReceive",
      "outputs": [
        {
          "name": "can",
          "type": "bool"
        }
      ],
      "payable": false,
      "stateMutability": "view",
      "type": "function"
    }
  ],
  "bytecode": "0x608060405234801561001057600080fd5b50336000806101000a81548173ffffffffffffffffffffffffffffffffffffffff021916908373ffffffffffffffffffffffffffffffffffffffff16021790555060016004819055506002600581905550610e106006819055506001600360146101000a81548160ff02191690831515021790555033600260006101000a81548173ffffffffffffffffffffffffffffffffffffffff021916908373ffffffffffffffffffffffffffffffffffffffff1602179055506140f7806100d56000396000f3006080604052600436106101b6576000357c0100000000000000000000000000000000000000000000000000000000900463ffffffff16806286786e146101bb578063096d798c146102165780630a2865201461028957806313989bc7146102e057806315e7a5621461030d5780631b0cbef91461038057806322923d46146103ab57806327671993146104105780632ddbd13a1461046757806337770a391461049257806338188466146104bd5780633b28d71e146105305780633d0ed0481461056757806343900e78146105aa578063567dfce2146107bc5780635ae4558414610841578063633edc26146108b45780637085f5c21461090157806379ba509714610b715780638a196a6814610b885780638da5cb5b14610bcf57806390d370ba14610c2657806397fd370514610c815780639cfe42da14610cf4578063ae16e92014610d37578063b4b5b25414610f3f578063b6558c1a14610f82578063b6ae6aeb14611070578063b9e4da60146110c7578063bedb86fb146110fe578063cba2534f1461112d578063d4ee1d901461114d578063f2fde38b146111a4578063f36fd108146111e7578063fc0c546a1461125a575b600080fd5b3480156101c757600080fd5b506101fc600480360381019080803573ffffffffffffffffffffffffffffffffffffffff1690602001909291905050506112b1565b604051808215151515815260200191505060405180910390f35b34801561022257600080fd5b5061028760048036038101908080359060200190929190803590602001908201803590602001908080601f01602080910402602001604051908101604052809392919081815260200183838082843782019150505050505091929192905050506112fc565b005b34801561029557600080fd5b506102ca600480360381019080803573ffffffffffffffffffffffffffffffffffffffff169060200190929190505050611447565b6040518082815260200191505060405180910390f35b3480156102ec57600080fd5b5061030b60048036038101908080359060200190929190505050611490565b005b34801561031957600080fd5b5061037e60048036038101908080359060200190929190803590602001908201803590602001908080601f01602080910402602001604051908101604052809392919081815260200183838082843782019150505050505091929192905050506115dc565b005b34801561038c57600080fd5b50610395611724565b6040518082815260200191505060405180910390f35b3480156103b757600080fd5b506103ec600480360381019080803573ffffffffffffffffffffffffffffffffffffffff16906020019092919050505061172a565b60405180848152602001838152602001828152602001935050505060405180910390f35b34801561041c57600080fd5b506104256117fc565b604051808273ffffffffffffffffffffffffffffffffffffffff1673ffffffffffffffffffffffffffffffffffffffff16815260200191505060405180910390f35b34801561047357600080fd5b5061047c611822565b6040518082815260200191505060405180910390f35b34801561049e57600080fd5b506104a761182c565b6040518082815260200191505060405180910390f35b3480156104c957600080fd5b5061052e60048036038101908080359060200190929190803590602001908201803590602001908080601f0160208091040260200160405190810160405280939291908181526020018383808284378201915050505050509192919290505050611836565b005b34801561053c57600080fd5b50610565600480360381019080803590602001909291908035906020019092919050505061197e565b005b34801561057357600080fd5b506105a8600480360381019080803573ffffffffffffffffffffffffffffffffffffffff169060200190929190505050611ab6565b005b3480156105b657600080fd5b506107ba60048036038101908080359060200190929190803573ffffffffffffffffffffffffffffffffffffffff169060200190929190803590602001908201803590602001908080601f01602080910402602001604051908101604052809392919081815260200183838082843782019150505050505091929192908035906020019092919080359060200190929190803590602001908201803590602001908080601f0160208091040260200160405190810160405280939291908181526020018383808284378201915050505050509192919290803590602001908201803590602001908080601f0160208091040260200160405190810160405280939291908181526020018383808284378201915050505050509192919290803590602001908201803590602001908080601f0160208091040260200160405190810160405280939291908181526020018383808284378201915050505050509192919290803590602001908201803590602001908080601f0160208091040260200160405190810160405280939291908181526020018383808284378201915050505050509192919290803590602001908201803590602001908080601f0160208091040260200160405190810160405280939291908181526020018383808284378201915050505050509192919290803560ff169060200190929190505050611c18565b005b3480156107c857600080fd5b50610827600480360381019080803573ffffffffffffffffffffffffffffffffffffffff169060200190929190803573ffffffffffffffffffffffffffffffffffffffff16906020019092919080359060200190929190505050611f0a565b604051808215151515815260200191505060405180910390f35b34801561084d57600080fd5b506108b260048036038101908080359060200190929190803590602001908201803590602001908080601f0160208091040260200160405190810160405280939291908181526020018383808284378201915050505050509192919290505050612117565b005b3480156108c057600080fd5b506108ff60048036038101908080359060200190929190803573ffffffffffffffffffffffffffffffffffffffff16906020019092919050505061225f565b005b34801561090d57600080fd5b5061092c600480360381019080803590602001909291905050506123d4565b6040518080602001806020018060200180602001806020018860ff1660ff1681526020018760ff1660ff16815260200186810386528d818151815260200191508051906020019080838360005b83811015610994578082015181840152602081019050610979565b50505050905090810190601f1680156109c15780820380516001836020036101000a031916815260200191505b5086810385528c818151815260200191508051906020019080838360005b838110156109fa5780820151818401526020810190506109df565b50505050905090810190601f168015610a275780820380516001836020036101000a031916815260200191505b5086810384528b818151815260200191508051906020019080838360005b83811015610a60578082015181840152602081019050610a45565b50505050905090810190601f168015610a8d5780820380516001836020036101000a031916815260200191505b5086810383528a818151815260200191508051906020019080838360005b83811015610ac6578082015181840152602081019050610aab565b50505050905090810190601f168015610af35780820380516001836020036101000a031916815260200191505b50868103825289818151815260200191508051906020019080838360005b83811015610b2c578082015181840152602081019050610b11565b50505050905090810190601f168015610b595780820380516001836020036101000a031916815260200191505b509c5050505050505050505050505060405180910390f35b348015610b7d57600080fd5b50610b866127a5565b005b348015610b9457600080fd5b50610bcd60048036038101908080359060200190929190803560ff169060200190929190803560ff169060200190929190505050612944565b005b348015610bdb57600080fd5b50610be4612abd565b604051808273ffffffffffffffffffffffffffffffffffffffff1673ffffffffffffffffffffffffffffffffffffffff16815260200191505060405180910390f35b348015610c3257600080fd5b50610c67600480360381019080803573ffffffffffffffffffffffffffffffffffffffff169060200190929190505050612ae2565b604051808215151515815260200191505060405180910390f35b348015610c8d57600080fd5b50610cf260048036038101908080359060200190929190803590602001908201803590602001908080601f0160208091040260200160405190810160405280939291908181526020018383808284378201915050505050509192919290505050612bc2565b005b348015610d0057600080fd5b50610d35600480360381019080803573ffffffffffffffffffffffffffffffffffffffff169060200190929190505050612d0a565b005b348015610d4357600080fd5b50610f3d600480360381019080803573ffffffffffffffffffffffffffffffffffffffff169060200190929190803590602001908201803590602001908080601f01602080910402602001604051908101604052809392919081815260200183838082843782019150505050505091929192908035906020019092919080359060200190929190803590602001908201803590602001908080601f0160208091040260200160405190810160405280939291908181526020018383808284378201915050505050509192919290803590602001908201803590602001908080601f0160208091040260200160405190810160405280939291908181526020018383808284378201915050505050509192919290803590602001908201803590602001908080601f0160208091040260200160405190810160405280939291908181526020018383808284378201915050505050509192919290803590602001908201803590602001908080601f0160208091040260200160405190810160405280939291908181526020018383808284378201915050505050509192919290803590602001908201803590602001908080601f0160208091040260200160405190810160405280939291908181526020018383808284378201915050505050509192919290803560ff169060200190929190505050612e6e565b005b348015610f4b57600080fd5b50610f80600480360381019080803573ffffffffffffffffffffffffffffffffffffffff169060200190929190505050613182565b005b348015610f8e57600080fd5b50610fad60048036038101908080359060200190929190505050613221565b604051808673ffffffffffffffffffffffffffffffffffffffff1673ffffffffffffffffffffffffffffffffffffffff16815260200180602001858152602001848152602001838152602001828103825286818151815260200191508051906020019080838360005b83811015611031578082015181840152602081019050611016565b50505050905090810190601f16801561105e5780820380516001836020036101000a031916815260200191505b50965050505050505060405180910390f35b34801561107c57600080fd5b506110b1600480360381019080803573ffffffffffffffffffffffffffffffffffffffff169060200190929190505050613362565b6040518082815260200191505060405180910390f35b3480156110d357600080fd5b506110fc60048036038101908080359060200190929190803590602001909291905050506133ab565b005b34801561110a57600080fd5b5061112b6004803603810190808035151590602001909291905050506134e3565b005b61114b6004803603810190808035906020019092919050505061355b565b005b34801561115957600080fd5b50611162613d43565b604051808273ffffffffffffffffffffffffffffffffffffffff1673ffffffffffffffffffffffffffffffffffffffff16815260200191505060405180910390f35b3480156111b057600080fd5b506111e5600480360381019080803573ffffffffffffffffffffffffffffffffffffffff169060200190929190505050613d69565b005b3480156111f357600080fd5b5061125860048036038101908080359060200190929190803590602001908201803590602001908080601f0160208091040260200160405190810160405280939291908181526020018383808284378201915050505050509192919290505050613e08565b005b34801561126657600080fd5b5061126f613f50565b604051808273ffffffffffffffffffffffffffffffffffffffff1673ffffffffffffffffffffffffffffffffffffffff16815260200191505060405180910390f35b600080600b60008473ffffffffffffffffffffffffffffffffffffffff1673ffffffffffffffffffffffffffffffffffffffff16815260200190815260200160002054119050919050565b600260009054906101000a900473ffffffffffffffffffffffffffffffffffffffff1673ffffffffffffffffffffffffffffffffffffffff163373ffffffffffffffffffffffffffffffffffffffff1614806113a457506000809054906101000a900473ffffffffffffffffffffffffffffffffffffffff1673ffffffffffffffffffffffffffffffffffffffff163373ffffffffffffffffffffffffffffffffffffffff16145b1515611418576040517f08c379a00000000000000000000000000000000000000000000000000000000081526004018080602001828103825260168152602001807f4f6e6c79206f776e65722063616e20646f20746869730000000000000000000081525060200191505060405180910390fd5b80600c60008481526020019081526020016000206001019080519060200190611442929190613f76565b505050565b6000600760008373ffffffffffffffffffffffffffffffffffffffff1673ffffffffffffffffffffffffffffffffffffffff168152602001908152602001600020549050919050565b600260009054906101000a900473ffffffffffffffffffffffffffffffffffffffff1673ffffffffffffffffffffffffffffffffffffffff163373ffffffffffffffffffffffffffffffffffffffff16148061153857506000809054906101000a900473ffffffffffffffffffffffffffffffffffffffff1673ffffffffffffffffffffffffffffffffffffffff163373ffffffffffffffffffffffffffffffffffffffff16145b15156115ac576040517f08c379a00000000000000000000000000000000000000000000000000000000081526004018080602001828103825260168152602001807f4f6e6c79206f776e65722063616e20646f20746869730000000000000000000081525060200191505060405180910390fd5b60016011600083815260200190815260200160002060006101000a81548160ff021916908360ff16021790555050565b600260009054906101000a900473ffffffffffffffffffffffffffffffffffffffff1673ffffffffffffffffffffffffffffffffffffffff163373ffffffffffffffffffffffffffffffffffffffff16148061168457506000809054906101000a900473ffffffffffffffffffffffffffffffffffffffff1673ffffffffffffffffffffffffffffffffffffffff163373ffffffffffffffffffffffffffffffffffffffff16145b15156116f8576040517f08c379a00000000000000000000000000000000000000000000000000000000081526004018080602001828103825260168152602001807f4f6e6c79206f776e65722063616e20646f20746869730000000000000000000081525060200191505060405180910390fd5b8060136000848152602001908152602001600020908051906020019061171f929190613f76565b505050565b60045481565b6000806000600960008573ffffffffffffffffffffffffffffffffffffffff1673ffffffffffffffffffffffffffffffffffffffff16815260200190815260200160002054600860008673ffffffffffffffffffffffffffffffffffffffff1673ffffffffffffffffffffffffffffffffffffffff16815260200190815260200160002054600a60008773ffffffffffffffffffffffffffffffffffffffff1673ffffffffffffffffffffffffffffffffffffffff168152602001908152602001600020549250925092509193909250565b600260009054906101000a900473ffffffffffffffffffffffffffffffffffffffff1681565b6000600454905090565b6000600554905090565b600260009054906101000a900473ffffffffffffffffffffffffffffffffffffffff1673ffffffffffffffffffffffffffffffffffffffff163373ffffffffffffffffffffffffffffffffffffffff1614806118de57506000809054906101000a900473ffffffffffffffffffffffffffffffffffffffff1673ffffffffffffffffffffffffffffffffffffffff163373ffffffffffffffffffffffffffffffffffffffff16145b1515611952576040517f08c379a00000000000000000000000000000000000000000000000000000000081526004018080602001828103825260168152602001807f4f6e6c79206f776e65722063616e20646f20746869730000000000000000000081525060200191505060405180910390fd5b80601560008481526020019081526020016000209080519060200190611979929190613f76565b505050565b600260009054906101000a900473ffffffffffffffffffffffffffffffffffffffff1673ffffffffffffffffffffffffffffffffffffffff163373ffffffffffffffffffffffffffffffffffffffff161480611a2657506000809054906101000a900473ffffffffffffffffffffffffffffffffffffffff1673ffffffffffffffffffffffffffffffffffffffff163373ffffffffffffffffffffffffffffffffffffffff16145b1515611a9a576040517f08c379a00000000000000000000000000000000000000000000000000000000081526004018080602001828103825260168152602001807f4f6e6c79206f776e65722063616e20646f20746869730000000000000000000081525060200191505060405180910390fd5b8060106000848152602001908152602001600020819055505050565b600260009054906101000a900473ffffffffffffffffffffffffffffffffffffffff1673ffffffffffffffffffffffffffffffffffffffff163373ffffffffffffffffffffffffffffffffffffffff161480611b5e57506000809054906101000a900473ffffffffffffffffffffffffffffffffffffffff1673ffffffffffffffffffffffffffffffffffffffff163373ffffffffffffffffffffffffffffffffffffffff16145b1515611bd2576040517f08c379a00000000000000000000000000000000000000000000000000000000081526004018080602001828103825260168152602001807f4f6e6c79206f776e65722063616e20646f20746869730000000000000000000081525060200191505060405180910390fd5b600b60008273ffffffffffffffffffffffffffffffffffffffff1673ffffffffffffffffffffffffffffffffffffffff1681526020019081526020016000206000905550565b600260009054906101000a900473ffffffffffffffffffffffffffffffffffffffff1673ffffffffffffffffffffffffffffffffffffffff163373ffffffffffffffffffffffffffffffffffffffff161480611cc057506000809054906101000a900473ffffffffffffffffffffffffffffffffffffffff1673ffffffffffffffffffffffffffffffffffffffff163373ffffffffffffffffffffffffffffffffffffffff16145b1515611d34576040517f08c379a00000000000000000000000000000000000000000000000000000000081526004018080602001828103825260168152602001807f4f6e6c79206f776e65722063616e20646f20746869730000000000000000000081525060200191505060405180910390fd5b60408051908101604052808b73ffffffffffffffffffffffffffffffffffffffff1681526020018a815250600c60008d815260200190815260200160002060008201518160000160006101000a81548173ffffffffffffffffffffffffffffffffffffffff021916908373ffffffffffffffffffffffffffffffffffffffff1602179055506020820151816001019080519060200190611dd5929190613ff6565b5090505087600e60008d81526020019081526020016000208190555086601060008d81526020019081526020016000208190555080600f60008d815260200190815260200160002060006101000a81548160ff021916908360ff16021790555085601260008d81526020019081526020016000209080519060200190611e5c929190613f76565b5084601360008d81526020019081526020016000209080519060200190611e84929190613f76565b5083601460008d81526020019081526020016000209080519060200190611eac929190613f76565b5082601560008d81526020019081526020016000209080519060200190611ed4929190613f76565b5081601660008d81526020019081526020016000209080519060200190611efc929190613f76565b505050505050505050505050565b600080600260009054906101000a900473ffffffffffffffffffffffffffffffffffffffff1673ffffffffffffffffffffffffffffffffffffffff163373ffffffffffffffffffffffffffffffffffffffff161480611fb557506000809054906101000a900473ffffffffffffffffffffffffffffffffffffffff1673ffffffffffffffffffffffffffffffffffffffff163373ffffffffffffffffffffffffffffffffffffffff16145b1515612029576040517f08c379a00000000000000000000000000000000000000000000000000000000081526004018080602001828103825260168152602001807f4f6e6c79206f776e65722063616e20646f20746869730000000000000000000081525060200191505060405180910390fd5b8490508073ffffffffffffffffffffffffffffffffffffffff1663a9059cbb85856040518363ffffffff167c0100000000000000000000000000000000000000000000000000000000028152600401808373ffffffffffffffffffffffffffffffffffffffff1673ffffffffffffffffffffffffffffffffffffffff16815260200182815260200192505050602060405180830381600087803b1580156120cf57600080fd5b505af11580156120e3573d6000803e3d6000fd5b505050506040513d60208110156120f957600080fd5b81019080805190602001909291905050505060019150509392505050565b600260009054906101000a900473ffffffffffffffffffffffffffffffffffffffff1673ffffffffffffffffffffffffffffffffffffffff163373ffffffffffffffffffffffffffffffffffffffff1614806121bf57506000809054906101000a900473ffffffffffffffffffffffffffffffffffffffff1673ffffffffffffffffffffffffffffffffffffffff163373ffffffffffffffffffffffffffffffffffffffff16145b1515612233576040517f08c379a00000000000000000000000000000000000000000000000000000000081526004018080602001828103825260168152602001807f4f6e6c79206f776e65722063616e20646f20746869730000000000000000000081525060200191505060405180910390fd5b8060126000848152602001908152602001600020908051906020019061225a929190613f76565b505050565b600260009054906101000a900473ffffffffffffffffffffffffffffffffffffffff1673ffffffffffffffffffffffffffffffffffffffff163373ffffffffffffffffffffffffffffffffffffffff16148061230757506000809054906101000a900473ffffffffffffffffffffffffffffffffffffffff1673ffffffffffffffffffffffffffffffffffffffff163373ffffffffffffffffffffffffffffffffffffffff16145b151561237b576040517f08c379a00000000000000000000000000000000000000000000000000000000081526004018080602001828103825260168152602001807f4f6e6c79206f776e65722063616e20646f20746869730000000000000000000081525060200191505060405180910390fd5b80600c600084815260200190815260200160002060000160006101000a81548173ffffffffffffffffffffffffffffffffffffffff021916908373ffffffffffffffffffffffffffffffffffffffff1602179055505050565b606080606080606060008060126000898152602001908152602001600020601360008a8152602001908152602001600020601460008b8152602001908152602001600020601560008c8152602001908152602001600020601660008d8152602001908152602001600020601160008e815260200190815260200160002060009054906101000a900460ff16600f60008f815260200190815260200160002060009054906101000a900460ff16868054600181600116156101000203166002900480601f0160208091040260200160405190810160405280929190818152602001828054600181600116156101000203166002900480156125155780601f106124ea57610100808354040283529160200191612515565b820191906000526020600020905b8154815290600101906020018083116124f857829003601f168201915b50505050509650858054600181600116156101000203166002900480601f0160208091040260200160405190810160405280929190818152602001828054600181600116156101000203166002900480156125b15780601f10612586576101008083540402835291602001916125b1565b820191906000526020600020905b81548152906001019060200180831161259457829003601f168201915b50505050509550848054600181600116156101000203166002900480601f01602080910402602001604051908101604052809291908181526020018280546001816001161561010002031660029004801561264d5780601f106126225761010080835404028352916020019161264d565b820191906000526020600020905b81548152906001019060200180831161263057829003601f168201915b50505050509450838054600181600116156101000203166002900480601f0160208091040260200160405190810160405280929190818152602001828054600181600116156101000203166002900480156126e95780601f106126be576101008083540402835291602001916126e9565b820191906000526020600020905b8154815290600101906020018083116126cc57829003601f168201915b50505050509350828054600181600116156101000203166002900480601f0160208091040260200160405190810160405280929190818152602001828054600181600116156101000203166002900480156127855780601f1061275a57610100808354040283529160200191612785565b820191906000526020600020905b81548152906001019060200180831161276857829003601f168201915b505050505092509650965096509650965096509650919395979092949650565b600160009054906101000a900473ffffffffffffffffffffffffffffffffffffffff1673ffffffffffffffffffffffffffffffffffffffff163373ffffffffffffffffffffffffffffffffffffffff1614151561280157600080fd5b600160009054906101000a900473ffffffffffffffffffffffffffffffffffffffff1673ffffffffffffffffffffffffffffffffffffffff166000809054906101000a900473ffffffffffffffffffffffffffffffffffffffff1673ffffffffffffffffffffffffffffffffffffffff167f8be0079c531659141344cd1fd0a4f28419497f9722a3daafe3b4186f6b6457e060405160405180910390a3600160009054906101000a900473ffffffffffffffffffffffffffffffffffffffff166000806101000a81548173ffffffffffffffffffffffffffffffffffffffff021916908373ffffffffffffffffffffffffffffffffffffffff1602179055506000600160006101000a81548173ffffffffffffffffffffffffffffffffffffffff021916908373ffffffffffffffffffffffffffffffffffffffff160217905550565b600260009054906101000a900473ffffffffffffffffffffffffffffffffffffffff1673ffffffffffffffffffffffffffffffffffffffff163373ffffffffffffffffffffffffffffffffffffffff1614806129ec57506000809054906101000a900473ffffffffffffffffffffffffffffffffffffffff1673ffffffffffffffffffffffffffffffffffffffff163373ffffffffffffffffffffffffffffffffffffffff16145b1515612a60576040517f08c379a00000000000000000000000000000000000000000000000000000000081526004018080602001828103825260168152602001807f4f6e6c79206f776e65722063616e20646f20746869730000000000000000000081525060200191505060405180910390fd5b81600f600085815260200190815260200160002060006101000a81548160ff021916908360ff160217905550806011600085815260200190815260200160002060006101000a81548160ff021916908360ff160217905550505050565b6000809054906101000a900473ffffffffffffffffffffffffffffffffffffffff1681565b600080600654600a60008573ffffffffffffffffffffffffffffffffffffffff1673ffffffffffffffffffffffffffffffffffffffff1681526020019081526020016000205460065403600860008673ffffffffffffffffffffffffffffffffffffffff1673ffffffffffffffffffffffffffffffffffffffff16815260200190815260200160002054420301811515612b7857fe5b04600960008573ffffffffffffffffffffffffffffffffffffffff1673ffffffffffffffffffffffffffffffffffffffff1681526020019081526020016000205401119050919050565b600260009054906101000a900473ffffffffffffffffffffffffffffffffffffffff1673ffffffffffffffffffffffffffffffffffffffff163373ffffffffffffffffffffffffffffffffffffffff161480612c6a57506000809054906101000a900473ffffffffffffffffffffffffffffffffffffffff1673ffffffffffffffffffffffffffffffffffffffff163373ffffffffffffffffffffffffffffffffffffffff16145b1515612cde576040517f08c379a00000000000000000000000000000000000000000000000000000000081526004018080602001828103825260168152602001807f4f6e6c79206f776e65722063616e20646f20746869730000000000000000000081525060200191505060405180910390fd5b80601660008481526020019081526020016000209080519060200190612d05929190613f76565b505050565b600260009054906101000a900473ffffffffffffffffffffffffffffffffffffffff1673ffffffffffffffffffffffffffffffffffffffff163373ffffffffffffffffffffffffffffffffffffffff161480612db257506000809054906101000a900473ffffffffffffffffffffffffffffffffffffffff1673ffffffffffffffffffffffffffffffffffffffff163373ffffffffffffffffffffffffffffffffffffffff16145b1515612e26576040517f08c379a00000000000000000000000000000000000000000000000000000000081526004018080602001828103825260168152602001807f4f6e6c79206f776e65722063616e20646f20746869730000000000000000000081525060200191505060405180910390fd5b6001600b60008373ffffffffffffffffffffffffffffffffffffffff1673ffffffffffffffffffffffffffffffffffffffff1681526020019081526020016000208190555050565b600260009054906101000a900473ffffffffffffffffffffffffffffffffffffffff1673ffffffffffffffffffffffffffffffffffffffff163373ffffffffffffffffffffffffffffffffffffffff161480612f1657506000809054906101000a900473ffffffffffffffffffffffffffffffffffffffff1673ffffffffffffffffffffffffffffffffffffffff163373ffffffffffffffffffffffffffffffffffffffff16145b1515612f8a576040517f08c379a00000000000000000000000000000000000000000000000000000000081526004018080602001828103825260168152602001807f4f6e6c79206f776e65722063616e20646f20746869730000000000000000000081525060200191505060405180910390fd5b60408051908101604052808b73ffffffffffffffffffffffffffffffffffffffff1681526020018a815250600c6000600454815260200190815260200160002060008201518160000160006101000a81548173ffffffffffffffffffffffffffffffffffffffff021916908373ffffffffffffffffffffffffffffffffffffffff160217905550602082015181600101908051906020019061302d929190613ff6565b5090505087600e6000600454815260200190815260200160002081905550866010600060045481526020019081526020016000208190555080600f6000600454815260200190815260200160002060006101000a81548160ff021916908360ff1602179055508560126000600454815260200190815260200160002090805190602001906130bc929190613f76565b508460136000600454815260200190815260200160002090805190602001906130e6929190613f76565b50836014600060045481526020019081526020016000209080519060200190613110929190613f76565b5082601560006004548152602001908152602001600020908051906020019061313a929190613f76565b50816016600060045481526020019081526020016000209080519060200190613164929190613f76565b50600160046000828254019250508190555050505050505050505050565b6000809054906101000a900473ffffffffffffffffffffffffffffffffffffffff1673ffffffffffffffffffffffffffffffffffffffff163373ffffffffffffffffffffffffffffffffffffffff161415156131dd57600080fd5b80600260006101000a81548173ffffffffffffffffffffffffffffffffffffffff021916908373ffffffffffffffffffffffffffffffffffffffff16021790555050565b600060606000806000600c600087815260200190815260200160002060000160009054906101000a900473ffffffffffffffffffffffffffffffffffffffff16600c6000888152602001908152602001600020600101600e600089815260200190815260200160002054600d60008a815260200190815260200160002054601060008b815260200190815260200160002054838054600181600116156101000203166002900480601f0160208091040260200160405190810160405280929190818152602001828054600181600116156101000203166002900480156133485780601f1061331d57610100808354040283529160200191613348565b820191906000526020600020905b81548152906001019060200180831161332b57829003601f168201915b505050505093509450945094509450945091939590929450565b6000600860008373ffffffffffffffffffffffffffffffffffffffff1673ffffffffffffffffffffffffffffffffffffffff168152602001908152602001600020549050919050565b600260009054906101000a900473ffffffffffffffffffffffffffffffffffffffff1673ffffffffffffffffffffffffffffffffffffffff163373ffffffffffffffffffffffffffffffffffffffff16148061345357506000809054906101000a900473ffffffffffffffffffffffffffffffffffffffff1673ffffffffffffffffffffffffffffffffffffffff163373ffffffffffffffffffffffffffffffffffffffff16145b15156134c7576040517f08c379a00000000000000000000000000000000000000000000000000000000081526004018080602001828103825260168152602001807f4f6e6c79206f776e65722063616e20646f20746869730000000000000000000081525060200191505060405180910390fd5b80600e6000848152602001908152602001600020819055505050565b6000809054906101000a900473ffffffffffffffffffffffffffffffffffffffff1673ffffffffffffffffffffffffffffffffffffffff163373ffffffffffffffffffffffffffffffffffffffff1614151561353e57600080fd5b80600360146101000a81548160ff02191690831515021790555050565b613563614076565b60008061356f336112b1565b1515156135e4576040517f08c379a000000000000000000000000000000000000000000000000000000000815260040180806020018281038252600c8152602001807f496e20626c61636b6c697374000000000000000000000000000000000000000081525060200191505060405180910390fd5b6135ed33612ae2565b1515613661576040517f08c379a00000000000000000000000000000000000000000000000000000000081526004018080602001828103825260148152602001807f73686f756c642077616974206f6e6520686f757200000000000000000000000081525060200191505060405180910390fd5b600360149054906101000a900460ff1615156136e5576040517f08c379a000000000000000000000000000000000000000000000000000000000815260040180806020018281038252600a8152602001807f486176652070617573650000000000000000000000000000000000000000000081525060200191505060405180910390fd5b60016011600086815260200190815260200160002060009054906101000a900460ff1660ff16101515613780576040517f08c379a000000000000000000000000000000000000000000000000000000000815260040180806020018281038252600b8152602001807f486176652064656c65746500000000000000000000000000000000000000000081525060200191505060405180910390fd5b60006010600086815260200190815260200160002054600d600087815260200190815260200160002054600e600088815260200190815260200160002054030310151515613836576040517f08c379a00000000000000000000000000000000000000000000000000000000081526004018080602001828103825260108152602001807f43616e647920737570657220686169720000000000000000000000000000000081525060200191505060405180910390fd5b600c60008581526020019081526020016000206040805190810160405290816000820160009054906101000a900473ffffffffffffffffffffffffffffffffffffffff1673ffffffffffffffffffffffffffffffffffffffff1673ffffffffffffffffffffffffffffffffffffffff168152602001600182018054600181600116156101000203166002900480601f0160208091040260200160405190810160405280929190818152602001828054600181600116156101000203166002900480156139435780601f1061391857610100808354040283529160200191613943565b820191906000526020600020905b81548152906001019060200180831161392657829003601f168201915b50505050508152505092506001600760003373ffffffffffffffffffffffffffffffffffffffff1673ffffffffffffffffffffffffffffffffffffffff168152602001908152602001600020600082825401925050819055506001600654600a60003373ffffffffffffffffffffffffffffffffffffffff1673ffffffffffffffffffffffffffffffffffffffff1681526020019081526020016000205460065403600860003373ffffffffffffffffffffffffffffffffffffffff1673ffffffffffffffffffffffffffffffffffffffff16815260200190815260200160002054420301811515613a3157fe5b04600960003373ffffffffffffffffffffffffffffffffffffffff1673ffffffffffffffffffffffffffffffffffffffff168152602001908152602001600020540103915060008210613a845781613a87565b60005b91506001600554038210613aa057600160055403613aa2565b815b600960003373ffffffffffffffffffffffffffffffffffffffff1673ffffffffffffffffffffffffffffffffffffffff16815260200190815260200160002081905550600654600a60003373ffffffffffffffffffffffffffffffffffffffff1673ffffffffffffffffffffffffffffffffffffffff1681526020019081526020016000205460065403600860003373ffffffffffffffffffffffffffffffffffffffff1673ffffffffffffffffffffffffffffffffffffffff16815260200190815260200160002054420301811515613b7857fe5b0660065403600a60003373ffffffffffffffffffffffffffffffffffffffff1673ffffffffffffffffffffffffffffffffffffffff1681526020019081526020016000208190555042600860003373ffffffffffffffffffffffffffffffffffffffff1673ffffffffffffffffffffffffffffffffffffffff168152602001908152602001600020819055506010600085815260200190815260200160002054600d60008681526020019081526020016000205401600d600086815260200190815260200160002081905550826000015190508073ffffffffffffffffffffffffffffffffffffffff1663a9059cbb3360106000888152602001908152602001600020546040518363ffffffff167c0100000000000000000000000000000000000000000000000000000000028152600401808373ffffffffffffffffffffffffffffffffffffffff1673ffffffffffffffffffffffffffffffffffffffff16815260200182815260200192505050602060405180830381600087803b158015613d0157600080fd5b505af1158015613d15573d6000803e3d6000fd5b505050506040513d6020811015613d2b57600080fd5b81019080805190602001909291905050505050505050565b600160009054906101000a900473ffffffffffffffffffffffffffffffffffffffff1681565b6000809054906101000a900473ffffffffffffffffffffffffffffffffffffffff1673ffffffffffffffffffffffffffffffffffffffff163373ffffffffffffffffffffffffffffffffffffffff16141515613dc457600080fd5b80600160006101000a81548173ffffffffffffffffffffffffffffffffffffffff021916908373ffffffffffffffffffffffffffffffffffffffff16021790555050565b600260009054906101000a900473ffffffffffffffffffffffffffffffffffffffff1673ffffffffffffffffffffffffffffffffffffffff163373ffffffffffffffffffffffffffffffffffffffff161480613eb057506000809054906101000a900473ffffffffffffffffffffffffffffffffffffffff1673ffffffffffffffffffffffffffffffffffffffff163373ffffffffffffffffffffffffffffffffffffffff16145b1515613f24576040517f08c379a00000000000000000000000000000000000000000000000000000000081526004018080602001828103825260168152602001807f4f6e6c79206f776e65722063616e20646f20746869730000000000000000000081525060200191505060405180910390fd5b80601460008481526020019081526020016000209080519060200190613f4b929190613f76565b505050565b600360009054906101000a900473ffffffffffffffffffffffffffffffffffffffff1681565b828054600181600116156101000203166002900490600052602060002090601f016020900481019282601f10613fb757805160ff1916838001178555613fe5565b82800160010185558215613fe5579182015b82811115613fe4578251825591602001919060010190613fc9565b5b509050613ff291906140a6565b5090565b828054600181600116156101000203166002900490600052602060002090601f016020900481019282601f1061403757805160ff1916838001178555614065565b82800160010185558215614065579182015b82811115614064578251825591602001919060010190614049565b5b50905061407291906140a6565b5090565b6040805190810160405280600073ffffffffffffffffffffffffffffffffffffffff168152602001606081525090565b6140c891905b808211156140c45760008160009055506001016140ac565b5090565b905600a165627a7a723058202f1e2ca5995c2abfdf760a3565af51af5f1f2c91198794d09ad1dfaad4f1663a0029",
  "source": "pragma solidity ^0.4.23;\n\n// ----------------------------------------------------------------------------\n// Safe maths\n// ----------------------------------------------------------------------------\nlibrary SafeMath {\n    function add(uint a, uint b) internal pure returns (uint c) {\n        c = a + b;\n        require(c >= a);\n    }\n    function sub(uint a, uint b) internal pure returns (uint c) {\n        require(b <= a);\n        c = a - b;\n    }\n    function mul(uint a, uint b) internal pure returns (uint c) {\n        c = a * b;\n        require(a == 0 || c / a == b);\n    }\n    function div(uint a, uint b) internal pure returns (uint c) {\n        require(b > 0);\n        c = a / b;\n    }\n}\n\n\n// ----------------------------------------------------------------------------\n// ERC Token Standard #20 Interface\n// https://github.com/ethereum/EIPs/blob/master/EIPS/eip-20.md\n// ----------------------------------------------------------------------------\ncontract TRC20Interface {\n    function totalSupply() public view returns (uint);\n    function balanceOf(address tokenOwner) public view returns (uint balance);\n    function allowance(address tokenOwner, address spender) public view returns (uint remaining);\n    function transfer(address to, uint tokens) public returns (bool success);\n    function approve(address spender, uint tokens) public returns (bool success);\n    function transferFrom(address from, address to, uint tokens) public returns (bool success);\n\n    event Transfer(address indexed from, address indexed to, uint tokens);\n    event Approval(address indexed tokenOwner, address indexed spender, uint tokens);\n}\n\n\n// ----------------------------------------------------------------------------\n// Owned contract\n// ----------------------------------------------------------------------------\ncontract Owned {\n    address public owner;\n    address public newOwner;\n\n    event OwnershipTransferred(address indexed _from, address indexed _to);\n\n    constructor() public {\n        owner = msg.sender;\n    }\n\n    modifier onlyOwner {\n        require(msg.sender == owner);\n        _;\n    }\n\n    function transferOwnership(address _newOwner) public onlyOwner {\n        newOwner = _newOwner;\n    }\n    function acceptOwnership() public {\n        require(msg.sender == newOwner);\n        emit OwnershipTransferred(owner, newOwner);\n        owner = newOwner;\n        newOwner = address(0);\n    }\n}\n\ncontract CandyBox is Owned {\n    /*\n    * checks only candyManager address is calling\n    */\n    modifier onlyCandyManager {\n        require(\n            msg.sender == roleCandyManager ||\n            msg.sender == owner\n        ,\"Only owner can do this\");\n        _;\n    }\n    address public roleCandyManager;\n\n    TRC20Interface public token;\n    bool isPause;\n    // Number of candy\n    uint public candyIdIndex_;\n    // Maximum number of users available.\n    uint maxReceiveNumber;\n    // recovery limit time 3600 second\n    uint recoveryLimitTime;\n    // user has receive numbers\n    mapping(address => uint) receiveNumbers;\n    // user last receive time\n    mapping(address => uint) receiveLastTime;\n    // use left receive nubers, one hour recovery one\n    mapping(address => uint) leftReceiveNumbers;\n    // Less than one hour recovery time , second\n    mapping(address => uint) leftRecoveryTime;\n    // user blacklist\n    mapping(address => uint) blacklist;\n\n\n    // candys\n    mapping(uint => Candy) candays;\n    // candy has been receive amount\n    mapping(uint => uint256) candyHasReceived;\n    // The user can receive total token of the candy\n    mapping(uint => uint256) candyTotal;\n    // The order of the candy token, the numbers are big on the top\n    mapping(uint => uint8) candyOrder;\n    // Number of times each time\n    mapping(uint => uint256) candyOnce;\n    // Has it been deleted? 1 is deleted\n    mapping(uint => uint8) candyIsDeleted;\n\n    mapping(uint => string) candyImageUrl;\n    mapping(uint => string) candyBgUrl;\n    mapping(uint => string) candyTitle;\n    mapping(uint => string) candyDesc;\n    mapping(uint => string) candyLink;\n\n    constructor() public {\n        candyIdIndex_ = 1;\n        maxReceiveNumber = 2;\n        recoveryLimitTime = 3600;\n        isPause = true;\n        roleCandyManager = msg.sender;\n    }\n\n    struct Candy {\n        address addr;\n        string name;\n    }\n\n    function setPause(bool pause) public onlyOwner {\n        isPause = pause;\n    }\n\n    function setCandyManager(address addr) public onlyOwner {\n        roleCandyManager = addr;\n    }\n\n    function addCandy(\n        address addr,\n        string memory name,\n        uint256 total,\n        uint256 once,\n        string memory imageUrl,\n        string memory bgUrl,\n        string memory title,\n        string memory introduction,\n        string memory link,\n        uint8 order\n    )\n    public\n    onlyCandyManager\n    {\n        candays[candyIdIndex_] = Candy(addr, name);\n        candyTotal[candyIdIndex_] = total;\n        candyOnce[candyIdIndex_] = once;\n        candyOrder[candyIdIndex_] = order;\n\n        candyImageUrl[candyIdIndex_] = imageUrl;\n        candyBgUrl[candyIdIndex_] = bgUrl;\n        candyTitle[candyIdIndex_] = title;\n        candyDesc[candyIdIndex_] = introduction;\n        candyLink[candyIdIndex_] = link;\n\n        candyIdIndex_ += 1;\n    }\n\n    function editCandy(\n        uint id,\n        address addr,\n        string memory name,\n        uint256 total,\n        uint256 once,\n        string memory imageUrl,\n        string memory bgUrl,\n        string memory title,\n        string memory introduction,\n        string memory link,\n        uint8 order\n    )\n    public\n    onlyCandyManager\n    {\n        candays[id] = Candy(addr, name);\n        candyTotal[id] = total;\n        candyOnce[id] = once;\n        candyOrder[id] = order;\n\n        candyImageUrl[id] = imageUrl;\n        candyBgUrl[id] = bgUrl;\n        candyTitle[id] = title;\n        candyDesc[id] = introduction;\n        candyLink[id] = link;\n    }\n\n    function delCandy(uint id) public onlyCandyManager {\n        candyIsDeleted[id] = 1;\n    }\n\n    function editPubCandy(uint id, uint8 order, uint8 isDeleted) public onlyCandyManager() {\n        candyOrder[id] = order;\n        candyIsDeleted[id] = isDeleted;\n    }\n\n    function editAddress(uint id, address addr) public onlyCandyManager() {\n        candays[id].addr = addr;\n    }\n    function editName(uint id, string memory name) public onlyCandyManager() {\n        candays[id].name = name;\n    }\n    function editTotal(uint id, uint256 total) public onlyCandyManager() {\n        candyTotal[id] = total;\n    }\n    function editOnce(uint id, uint256 once) public onlyCandyManager() {\n        candyOnce[id] = once;\n    }\n    function editImageUrl(uint id, string memory imageUrl) public onlyCandyManager() {\n        candyImageUrl[id] = imageUrl;\n    }\n    function editBgUrl(uint id, string memory bgUrl) public onlyCandyManager() {\n        candyBgUrl[id] = bgUrl;\n    }\n    function editTitle(uint id, string memory title) public onlyCandyManager() {\n        candyTitle[id] = title;\n    }\n    function editIntroduction(uint id, string memory introduction) public onlyCandyManager() {\n        candyDesc[id] = introduction;\n    }\n    function editLink(uint id, string memory link) public onlyCandyManager() {\n        candyLink[id] = link;\n    }\n\n    function getCandy(uint id)\n        public\n        view\n        returns (\n            address,\n            string memory,\n            uint256,\n            uint256,\n            uint\n        ) {\n        return (\n            candays[id].addr,\n            candays[id].name,\n            candyTotal[id],\n            candyHasReceived[id],\n            candyOnce[id]\n        );\n    }\n    function getCandyDetail(uint _id)\n        public\n        view\n        returns (\n            string memory,\n            string memory,\n            string memory,\n            string memory,\n            string memory,\n            uint8,\n            uint8\n        ) {\n        return (\n            candyImageUrl[_id],\n            candyBgUrl[_id],\n            candyTitle[_id],\n            candyDesc[_id],\n            candyLink[_id],\n            candyIsDeleted[_id],\n            candyOrder[_id]\n        );\n    }\n    // User click and  receive the candy.\n    function receive(uint id) public payable {\n        require(!inBlacklist(msg.sender), 'In blacklist');\n        require(canReceive(msg.sender), 'should wait one hour');\n        require(isPause, 'Have pause');\n        require(candyIsDeleted[id] < 1, 'Have delete');\n        require(candyTotal[id]- candyHasReceived[id] - candyOnce[id] >= 0, 'Candy super hair');\n\n\n        Candy memory candy = candays[id];\n        receiveNumbers[msg.sender] += 1;\n        uint lrn = (leftReceiveNumbers[msg.sender] + (now - receiveLastTime[msg.sender] + (recoveryLimitTime - leftRecoveryTime[msg.sender])) / recoveryLimitTime) - 1;\n        lrn = lrn < 0 ? 0: lrn;\n        leftReceiveNumbers[msg.sender] = lrn < maxReceiveNumber - 1 ? lrn : maxReceiveNumber - 1 ;\n        leftRecoveryTime[msg.sender] = recoveryLimitTime - (now - receiveLastTime[msg.sender] + (recoveryLimitTime - leftRecoveryTime[msg.sender])) % recoveryLimitTime;\n        receiveLastTime[msg.sender] = now;\n        candyHasReceived[id] = candyHasReceived[id] + candyOnce[id];\n        TRC20Interface t = TRC20Interface(candy.addr);\n        t.transfer(msg.sender, candyOnce[id]);\n    }\n    // Retrieve candy\n    function transferCandy(address _token, address _to, uint256 _amount) public onlyCandyManager returns (bool success){\n        TRC20Interface t = TRC20Interface(_token);\n        t.transfer(_to, _amount);\n        return true;\n    }\n    // Total candys in the box.\n    function total() public view returns (uint number){\n        return candyIdIndex_;\n    }\n    function maxNumbers() public view returns (uint number){\n        return maxReceiveNumber;\n    }\n    // User has receive candy numbers.\n    function myNumbers(address addr) public view returns (uint number){\n        return receiveNumbers[addr];\n    }\n    function myLastTime(address addr) public view returns (uint time){\n        return receiveLastTime[addr];\n    }\n    // User last receive info.\n    function myLastReceive(address addr) public view returns (uint num, uint time, uint left){\n        return (leftReceiveNumbers[addr], receiveLastTime[addr], leftRecoveryTime[addr]);\n    }\n    // Add some user to blacklist\n    function addBlacklist(address addr) public onlyCandyManager {\n        blacklist[addr] = 1;\n    }\n    // Delete user from blacklist\n    function delBlacklist(address addr) public onlyCandyManager {\n        delete blacklist[addr];\n    }\n\n    function inBlacklist(address addr) public view returns (bool isin) {\n        return blacklist[addr] > 0;\n    }\n\n    function canReceive(address addr) public view returns (bool can) {\n        return (leftReceiveNumbers[addr] + (now - receiveLastTime[addr] + (recoveryLimitTime - leftRecoveryTime[addr])) / recoveryLimitTime) > 0;\n    }\n}\n",
  "sourcePath": "E:\\blockchain\\tron-candybox\\contracts\\CandyBox.sol",
  "compiler": {
    "name": "solc",
    "version": "0.4.24-develop.2018.8.28+commit.3ba0cdec.mod.Emscripten.clang"
  },
  "schemaVersion": "2.0.1",
  "updatedAt": "2018-12-24T07:43:42.257Z"
}