{
  "contractName": "CandyBox",
  "abi": [
    {
      "constant": true,
      "inputs": [],
      "name": "candyIdIndex_",
      "outputs": [
        {
          "name": "",
          "type": "uint256"
        }
      ],
      "payable": false,
      "stateMutability": "view",
      "type": "function"
    },
    {
      "constant": true,
      "inputs": [],
      "name": "roleCandyManager",
      "outputs": [
        {
          "name": "",
          "type": "address"
        }
      ],
      "payable": false,
      "stateMutability": "view",
      "type": "function"
    },
    {
      "constant": false,
      "inputs": [],
      "name": "acceptOwnership",
      "outputs": [],
      "payable": false,
      "stateMutability": "nonpayable",
      "type": "function"
    },
    {
      "constant": true,
      "inputs": [],
      "name": "owner",
      "outputs": [
        {
          "name": "",
          "type": "address"
        }
      ],
      "payable": false,
      "stateMutability": "view",
      "type": "function"
    },
    {
      "constant": true,
      "inputs": [],
      "name": "newOwner",
      "outputs": [
        {
          "name": "",
          "type": "address"
        }
      ],
      "payable": false,
      "stateMutability": "view",
      "type": "function"
    },
    {
      "constant": false,
      "inputs": [
        {
          "name": "_newOwner",
          "type": "address"
        }
      ],
      "name": "transferOwnership",
      "outputs": [],
      "payable": false,
      "stateMutability": "nonpayable",
      "type": "function"
    },
    {
      "constant": true,
      "inputs": [],
      "name": "token",
      "outputs": [
        {
          "name": "",
          "type": "address"
        }
      ],
      "payable": false,
      "stateMutability": "view",
      "type": "function"
    },
    {
      "inputs": [],
      "payable": false,
      "stateMutability": "nonpayable",
      "type": "constructor"
    },
    {
      "anonymous": false,
      "inputs": [
        {
          "indexed": true,
          "name": "_from",
          "type": "address"
        },
        {
          "indexed": true,
          "name": "_to",
          "type": "address"
        }
      ],
      "name": "OwnershipTransferred",
      "type": "event"
    },
    {
      "constant": false,
      "inputs": [
        {
          "name": "pause",
          "type": "bool"
        }
      ],
      "name": "setPause",
      "outputs": [],
      "payable": false,
      "stateMutability": "nonpayable",
      "type": "function"
    },
    {
      "constant": false,
      "inputs": [
        {
          "name": "addr",
          "type": "address"
        }
      ],
      "name": "setCandyManager",
      "outputs": [],
      "payable": false,
      "stateMutability": "nonpayable",
      "type": "function"
    },
    {
      "constant": false,
      "inputs": [
        {
          "name": "addr",
          "type": "address"
        },
        {
          "name": "name",
          "type": "string"
        },
        {
          "name": "total",
          "type": "uint256"
        },
        {
          "name": "once",
          "type": "uint256"
        },
        {
          "name": "imageUrl",
          "type": "string"
        },
        {
          "name": "bgUrl",
          "type": "string"
        },
        {
          "name": "title",
          "type": "string"
        },
        {
          "name": "introduction",
          "type": "string"
        },
        {
          "name": "link",
          "type": "string"
        },
        {
          "name": "order",
          "type": "uint8"
        }
      ],
      "name": "addCandy",
      "outputs": [],
      "payable": false,
      "stateMutability": "nonpayable",
      "type": "function"
    },
    {
      "constant": false,
      "inputs": [
        {
          "name": "id",
          "type": "uint256"
        }
      ],
      "name": "delCandy",
      "outputs": [],
      "payable": false,
      "stateMutability": "nonpayable",
      "type": "function"
    },
    {
      "constant": false,
      "inputs": [
        {
          "name": "id",
          "type": "uint256"
        },
        {
          "name": "name",
          "type": "string"
        },
        {
          "name": "introduction",
          "type": "string"
        },
        {
          "name": "once",
          "type": "uint256"
        }
      ],
      "name": "editCandy",
      "outputs": [],
      "payable": false,
      "stateMutability": "nonpayable",
      "type": "function"
    },
    {
      "constant": false,
      "inputs": [
        {
          "name": "id",
          "type": "uint256"
        },
        {
          "name": "addr",
          "type": "address"
        },
        {
          "name": "name",
          "type": "string"
        },
        {
          "name": "total",
          "type": "uint256"
        },
        {
          "name": "once",
          "type": "uint256"
        },
        {
          "name": "imageUrl",
          "type": "string"
        },
        {
          "name": "bgUrl",
          "type": "string"
        },
        {
          "name": "title",
          "type": "string"
        },
        {
          "name": "introduction",
          "type": "string"
        },
        {
          "name": "link",
          "type": "string"
        },
        {
          "name": "order",
          "type": "uint8"
        }
      ],
      "name": "editCandy",
      "outputs": [],
      "payable": false,
      "stateMutability": "nonpayable",
      "type": "function"
    },
    {
      "constant": false,
      "inputs": [
        {
          "name": "id",
          "type": "uint256"
        },
        {
          "name": "order",
          "type": "uint8"
        },
        {
          "name": "isDeleted",
          "type": "uint8"
        }
      ],
      "name": "editPubCandy",
      "outputs": [],
      "payable": false,
      "stateMutability": "nonpayable",
      "type": "function"
    },
    {
      "constant": true,
      "inputs": [
        {
          "name": "id",
          "type": "uint256"
        }
      ],
      "name": "getCandy",
      "outputs": [
        {
          "name": "",
          "type": "address"
        },
        {
          "name": "",
          "type": "string"
        },
        {
          "name": "",
          "type": "uint256"
        },
        {
          "name": "",
          "type": "uint256"
        },
        {
          "name": "",
          "type": "uint256"
        }
      ],
      "payable": false,
      "stateMutability": "view",
      "type": "function"
    },
    {
      "constant": true,
      "inputs": [
        {
          "name": "_id",
          "type": "uint256"
        }
      ],
      "name": "getCandyDetail",
      "outputs": [
        {
          "name": "",
          "type": "string"
        },
        {
          "name": "",
          "type": "string"
        },
        {
          "name": "",
          "type": "string"
        },
        {
          "name": "",
          "type": "string"
        },
        {
          "name": "",
          "type": "string"
        },
        {
          "name": "",
          "type": "uint8"
        },
        {
          "name": "",
          "type": "uint8"
        }
      ],
      "payable": false,
      "stateMutability": "view",
      "type": "function"
    },
    {
      "constant": false,
      "inputs": [
        {
          "name": "id",
          "type": "uint256"
        }
      ],
      "name": "receive",
      "outputs": [],
      "payable": true,
      "stateMutability": "payable",
      "type": "function"
    },
    {
      "constant": false,
      "inputs": [
        {
          "name": "_token",
          "type": "address"
        },
        {
          "name": "_to",
          "type": "address"
        },
        {
          "name": "_amount",
          "type": "uint256"
        }
      ],
      "name": "transferCandy",
      "outputs": [
        {
          "name": "success",
          "type": "bool"
        }
      ],
      "payable": false,
      "stateMutability": "nonpayable",
      "type": "function"
    },
    {
      "constant": true,
      "inputs": [],
      "name": "total",
      "outputs": [
        {
          "name": "number",
          "type": "uint256"
        }
      ],
      "payable": false,
      "stateMutability": "view",
      "type": "function"
    },
    {
      "constant": true,
      "inputs": [],
      "name": "maxNumbers",
      "outputs": [
        {
          "name": "number",
          "type": "uint256"
        }
      ],
      "payable": false,
      "stateMutability": "view",
      "type": "function"
    },
    {
      "constant": true,
      "inputs": [
        {
          "name": "addr",
          "type": "address"
        }
      ],
      "name": "myNumbers",
      "outputs": [
        {
          "name": "number",
          "type": "uint256"
        }
      ],
      "payable": false,
      "stateMutability": "view",
      "type": "function"
    },
    {
      "constant": true,
      "inputs": [
        {
          "name": "addr",
          "type": "address"
        }
      ],
      "name": "myLastTime",
      "outputs": [
        {
          "name": "time",
          "type": "uint256"
        }
      ],
      "payable": false,
      "stateMutability": "view",
      "type": "function"
    },
    {
      "constant": true,
      "inputs": [
        {
          "name": "addr",
          "type": "address"
        }
      ],
      "name": "myLastReceive",
      "outputs": [
        {
          "name": "num",
          "type": "uint256"
        },
        {
          "name": "time",
          "type": "uint256"
        },
        {
          "name": "left",
          "type": "uint256"
        }
      ],
      "payable": false,
      "stateMutability": "view",
      "type": "function"
    },
    {
      "constant": false,
      "inputs": [
        {
          "name": "addr",
          "type": "address"
        }
      ],
      "name": "addBlacklist",
      "outputs": [],
      "payable": false,
      "stateMutability": "nonpayable",
      "type": "function"
    },
    {
      "constant": false,
      "inputs": [
        {
          "name": "addr",
          "type": "address"
        }
      ],
      "name": "delBlacklist",
      "outputs": [],
      "payable": false,
      "stateMutability": "nonpayable",
      "type": "function"
    },
    {
      "constant": true,
      "inputs": [
        {
          "name": "addr",
          "type": "address"
        }
      ],
      "name": "inBlacklist",
      "outputs": [
        {
          "name": "isin",
          "type": "bool"
        }
      ],
      "payable": false,
      "stateMutability": "view",
      "type": "function"
    },
    {
      "constant": true,
      "inputs": [
        {
          "name": "addr",
          "type": "address"
        }
      ],
      "name": "canReceive",
      "outputs": [
        {
          "name": "can",
          "type": "bool"
        }
      ],
      "payable": false,
      "stateMutability": "view",
      "type": "function"
    }
  ],
  "bytecode": "0x608060405234801561001057600080fd5b50336000806101000a81548173ffffffffffffffffffffffffffffffffffffffff021916908373ffffffffffffffffffffffffffffffffffffffff16021790555060016004819055506002600581905550610e106006819055506001600360146101000a81548160ff02191690831515021790555033600260006101000a81548173ffffffffffffffffffffffffffffffffffffffff021916908373ffffffffffffffffffffffffffffffffffffffff1602179055506133ee806100d56000396000f30060806040526004361061015e576000357c0100000000000000000000000000000000000000000000000000000000900463ffffffff16806286786e146101635780630a286520146101be57806313989bc7146102155780631b0cbef91461024257806322923d461461026d57806327671993146102d25780632ddbd13a1461032957806337770a39146103545780633d0ed0481461037f57806343900e78146103c2578063567dfce2146105d45780637085f5c21461065957806379ba5097146108c95780638a196a68146108e05780638da5cb5b1461092757806390d370ba1461097e5780639cfe42da146109d9578063ae16e92014610a1c578063b4b5b25414610c24578063b6558c1a14610c67578063b6ae6aeb14610d55578063bedb86fb14610dac578063cba2534f14610ddb578063d038266f14610dfb578063d4ee1d9014610ebe578063f2fde38b14610f15578063fc0c546a14610f58575b600080fd5b34801561016f57600080fd5b506101a4600480360381019080803573ffffffffffffffffffffffffffffffffffffffff169060200190929190505050610faf565b604051808215151515815260200191505060405180910390f35b3480156101ca57600080fd5b506101ff600480360381019080803573ffffffffffffffffffffffffffffffffffffffff169060200190929190505050610ffa565b6040518082815260200191505060405180910390f35b34801561022157600080fd5b5061024060048036038101908080359060200190929190505050611043565b005b34801561024e57600080fd5b5061025761118f565b6040518082815260200191505060405180910390f35b34801561027957600080fd5b506102ae600480360381019080803573ffffffffffffffffffffffffffffffffffffffff169060200190929190505050611195565b60405180848152602001838152602001828152602001935050505060405180910390f35b3480156102de57600080fd5b506102e7611267565b604051808273ffffffffffffffffffffffffffffffffffffffff1673ffffffffffffffffffffffffffffffffffffffff16815260200191505060405180910390f35b34801561033557600080fd5b5061033e61128d565b6040518082815260200191505060405180910390f35b34801561036057600080fd5b50610369611297565b6040518082815260200191505060405180910390f35b34801561038b57600080fd5b506103c0600480360381019080803573ffffffffffffffffffffffffffffffffffffffff1690602001909291905050506112a1565b005b3480156103ce57600080fd5b506105d260048036038101908080359060200190929190803573ffffffffffffffffffffffffffffffffffffffff169060200190929190803590602001908201803590602001908080601f01602080910402602001604051908101604052809392919081815260200183838082843782019150505050505091929192908035906020019092919080359060200190929190803590602001908201803590602001908080601f0160208091040260200160405190810160405280939291908181526020018383808284378201915050505050509192919290803590602001908201803590602001908080601f0160208091040260200160405190810160405280939291908181526020018383808284378201915050505050509192919290803590602001908201803590602001908080601f0160208091040260200160405190810160405280939291908181526020018383808284378201915050505050509192919290803590602001908201803590602001908080601f0160208091040260200160405190810160405280939291908181526020018383808284378201915050505050509192919290803590602001908201803590602001908080601f0160208091040260200160405190810160405280939291908181526020018383808284378201915050505050509192919290803560ff169060200190929190505050611403565b005b3480156105e057600080fd5b5061063f600480360381019080803573ffffffffffffffffffffffffffffffffffffffff169060200190929190803573ffffffffffffffffffffffffffffffffffffffff16906020019092919080359060200190929190505050611705565b604051808215151515815260200191505060405180910390f35b34801561066557600080fd5b5061068460048036038101908080359060200190929190505050611912565b6040518080602001806020018060200180602001806020018860ff1660ff1681526020018760ff1660ff16815260200186810386528d818151815260200191508051906020019080838360005b838110156106ec5780820151818401526020810190506106d1565b50505050905090810190601f1680156107195780820380516001836020036101000a031916815260200191505b5086810385528c818151815260200191508051906020019080838360005b83811015610752578082015181840152602081019050610737565b50505050905090810190601f16801561077f5780820380516001836020036101000a031916815260200191505b5086810384528b818151815260200191508051906020019080838360005b838110156107b857808201518184015260208101905061079d565b50505050905090810190601f1680156107e55780820380516001836020036101000a031916815260200191505b5086810383528a818151815260200191508051906020019080838360005b8381101561081e578082015181840152602081019050610803565b50505050905090810190601f16801561084b5780820380516001836020036101000a031916815260200191505b50868103825289818151815260200191508051906020019080838360005b83811015610884578082015181840152602081019050610869565b50505050905090810190601f1680156108b15780820380516001836020036101000a031916815260200191505b509c5050505050505050505050505060405180910390f35b3480156108d557600080fd5b506108de611ce3565b005b3480156108ec57600080fd5b5061092560048036038101908080359060200190929190803560ff169060200190929190803560ff169060200190929190505050611e82565b005b34801561093357600080fd5b5061093c611ffb565b604051808273ffffffffffffffffffffffffffffffffffffffff1673ffffffffffffffffffffffffffffffffffffffff16815260200191505060405180910390f35b34801561098a57600080fd5b506109bf600480360381019080803573ffffffffffffffffffffffffffffffffffffffff169060200190929190505050612020565b604051808215151515815260200191505060405180910390f35b3480156109e557600080fd5b50610a1a600480360381019080803573ffffffffffffffffffffffffffffffffffffffff1690602001909291905050506120fc565b005b348015610a2857600080fd5b50610c22600480360381019080803573ffffffffffffffffffffffffffffffffffffffff169060200190929190803590602001908201803590602001908080601f01602080910402602001604051908101604052809392919081815260200183838082843782019150505050505091929192908035906020019092919080359060200190929190803590602001908201803590602001908080601f0160208091040260200160405190810160405280939291908181526020018383808284378201915050505050509192919290803590602001908201803590602001908080601f0160208091040260200160405190810160405280939291908181526020018383808284378201915050505050509192919290803590602001908201803590602001908080601f0160208091040260200160405190810160405280939291908181526020018383808284378201915050505050509192919290803590602001908201803590602001908080601f0160208091040260200160405190810160405280939291908181526020018383808284378201915050505050509192919290803590602001908201803590602001908080601f0160208091040260200160405190810160405280939291908181526020018383808284378201915050505050509192919290803560ff169060200190929190505050612260565b005b348015610c3057600080fd5b50610c65600480360381019080803573ffffffffffffffffffffffffffffffffffffffff169060200190929190505050612574565b005b348015610c7357600080fd5b50610c9260048036038101908080359060200190929190505050612613565b604051808673ffffffffffffffffffffffffffffffffffffffff1673ffffffffffffffffffffffffffffffffffffffff16815260200180602001858152602001848152602001838152602001828103825286818151815260200191508051906020019080838360005b83811015610d16578082015181840152602081019050610cfb565b50505050905090810190601f168015610d435780820380516001836020036101000a031916815260200191505b50965050505050505060405180910390f35b348015610d6157600080fd5b50610d96600480360381019080803573ffffffffffffffffffffffffffffffffffffffff169060200190929190505050612754565b6040518082815260200191505060405180910390f35b348015610db857600080fd5b50610dd960048036038101908080351515906020019092919050505061279d565b005b610df960048036038101908080359060200190929190505050612815565b005b348015610e0757600080fd5b50610ebc60048036038101908080359060200190929190803590602001908201803590602001908080601f0160208091040260200160405190810160405280939291908181526020018383808284378201915050505050509192919290803590602001908201803590602001908080601f016020809104026020016040519081016040528093929190818152602001838380828437820191505050505050919291929080359060200190929190505050612ff5565b005b348015610eca57600080fd5b50610ed3613182565b604051808273ffffffffffffffffffffffffffffffffffffffff1673ffffffffffffffffffffffffffffffffffffffff16815260200191505060405180910390f35b348015610f2157600080fd5b50610f56600480360381019080803573ffffffffffffffffffffffffffffffffffffffff1690602001909291905050506131a8565b005b348015610f6457600080fd5b50610f6d613247565b604051808273ffffffffffffffffffffffffffffffffffffffff1673ffffffffffffffffffffffffffffffffffffffff16815260200191505060405180910390f35b600080600b60008473ffffffffffffffffffffffffffffffffffffffff1673ffffffffffffffffffffffffffffffffffffffff16815260200190815260200160002054119050919050565b6000600760008373ffffffffffffffffffffffffffffffffffffffff1673ffffffffffffffffffffffffffffffffffffffff168152602001908152602001600020549050919050565b600260009054906101000a900473ffffffffffffffffffffffffffffffffffffffff1673ffffffffffffffffffffffffffffffffffffffff163373ffffffffffffffffffffffffffffffffffffffff1614806110eb57506000809054906101000a900473ffffffffffffffffffffffffffffffffffffffff1673ffffffffffffffffffffffffffffffffffffffff163373ffffffffffffffffffffffffffffffffffffffff16145b151561115f576040517f08c379a00000000000000000000000000000000000000000000000000000000081526004018080602001828103825260168152602001807f4f6e6c79206f776e65722063616e20646f20746869730000000000000000000081525060200191505060405180910390fd5b60016011600083815260200190815260200160002060006101000a81548160ff021916908360ff16021790555050565b60045481565b6000806000600960008573ffffffffffffffffffffffffffffffffffffffff1673ffffffffffffffffffffffffffffffffffffffff16815260200190815260200160002054600860008673ffffffffffffffffffffffffffffffffffffffff1673ffffffffffffffffffffffffffffffffffffffff16815260200190815260200160002054600a60008773ffffffffffffffffffffffffffffffffffffffff1673ffffffffffffffffffffffffffffffffffffffff168152602001908152602001600020549250925092509193909250565b600260009054906101000a900473ffffffffffffffffffffffffffffffffffffffff1681565b6000600454905090565b6000600554905090565b600260009054906101000a900473ffffffffffffffffffffffffffffffffffffffff1673ffffffffffffffffffffffffffffffffffffffff163373ffffffffffffffffffffffffffffffffffffffff16148061134957506000809054906101000a900473ffffffffffffffffffffffffffffffffffffffff1673ffffffffffffffffffffffffffffffffffffffff163373ffffffffffffffffffffffffffffffffffffffff16145b15156113bd576040517f08c379a00000000000000000000000000000000000000000000000000000000081526004018080602001828103825260168152602001807f4f6e6c79206f776e65722063616e20646f20746869730000000000000000000081525060200191505060405180910390fd5b600b60008273ffffffffffffffffffffffffffffffffffffffff1673ffffffffffffffffffffffffffffffffffffffff1681526020019081526020016000206000905550565b600260009054906101000a900473ffffffffffffffffffffffffffffffffffffffff1673ffffffffffffffffffffffffffffffffffffffff163373ffffffffffffffffffffffffffffffffffffffff1614806114ab57506000809054906101000a900473ffffffffffffffffffffffffffffffffffffffff1673ffffffffffffffffffffffffffffffffffffffff163373ffffffffffffffffffffffffffffffffffffffff16145b151561151f576040517f08c379a00000000000000000000000000000000000000000000000000000000081526004018080602001828103825260168152602001807f4f6e6c79206f776e65722063616e20646f20746869730000000000000000000081525060200191505060405180910390fd5b60408051908101604052808b73ffffffffffffffffffffffffffffffffffffffff1681526020018a815250600c60008d815260200190815260200160002060008201518160000160006101000a81548173ffffffffffffffffffffffffffffffffffffffff021916908373ffffffffffffffffffffffffffffffffffffffff16021790555060208201518160010190805190602001906115c092919061326d565b5090505087600e6000600454815260200190815260200160002081905550866010600060045481526020019081526020016000208190555080600f6000600454815260200190815260200160002060006101000a81548160ff021916908360ff16021790555085601260006004548152602001908152602001600020908051906020019061164f9291906132ed565b508460136000600454815260200190815260200160002090805190602001906116799291906132ed565b508360146000600454815260200190815260200160002090805190602001906116a39291906132ed565b508260156000600454815260200190815260200160002090805190602001906116cd9291906132ed565b508160166000600454815260200190815260200160002090805190602001906116f79291906132ed565b505050505050505050505050565b600080600260009054906101000a900473ffffffffffffffffffffffffffffffffffffffff1673ffffffffffffffffffffffffffffffffffffffff163373ffffffffffffffffffffffffffffffffffffffff1614806117b057506000809054906101000a900473ffffffffffffffffffffffffffffffffffffffff1673ffffffffffffffffffffffffffffffffffffffff163373ffffffffffffffffffffffffffffffffffffffff16145b1515611824576040517f08c379a00000000000000000000000000000000000000000000000000000000081526004018080602001828103825260168152602001807f4f6e6c79206f776e65722063616e20646f20746869730000000000000000000081525060200191505060405180910390fd5b8490508073ffffffffffffffffffffffffffffffffffffffff1663a9059cbb85856040518363ffffffff167c0100000000000000000000000000000000000000000000000000000000028152600401808373ffffffffffffffffffffffffffffffffffffffff1673ffffffffffffffffffffffffffffffffffffffff16815260200182815260200192505050602060405180830381600087803b1580156118ca57600080fd5b505af11580156118de573d6000803e3d6000fd5b505050506040513d60208110156118f457600080fd5b81019080805190602001909291905050505060019150509392505050565b606080606080606060008060126000898152602001908152602001600020601360008a8152602001908152602001600020601460008b8152602001908152602001600020601560008c8152602001908152602001600020601660008d8152602001908152602001600020601160008e815260200190815260200160002060009054906101000a900460ff16600f60008f815260200190815260200160002060009054906101000a900460ff16868054600181600116156101000203166002900480601f016020809104026020016040519081016040528092919081815260200182805460018160011615610100020316600290048015611a535780601f10611a2857610100808354040283529160200191611a53565b820191906000526020600020905b815481529060010190602001808311611a3657829003601f168201915b50505050509650858054600181600116156101000203166002900480601f016020809104026020016040519081016040528092919081815260200182805460018160011615610100020316600290048015611aef5780601f10611ac457610100808354040283529160200191611aef565b820191906000526020600020905b815481529060010190602001808311611ad257829003601f168201915b50505050509550848054600181600116156101000203166002900480601f016020809104026020016040519081016040528092919081815260200182805460018160011615610100020316600290048015611b8b5780601f10611b6057610100808354040283529160200191611b8b565b820191906000526020600020905b815481529060010190602001808311611b6e57829003601f168201915b50505050509450838054600181600116156101000203166002900480601f016020809104026020016040519081016040528092919081815260200182805460018160011615610100020316600290048015611c275780601f10611bfc57610100808354040283529160200191611c27565b820191906000526020600020905b815481529060010190602001808311611c0a57829003601f168201915b50505050509350828054600181600116156101000203166002900480601f016020809104026020016040519081016040528092919081815260200182805460018160011615610100020316600290048015611cc35780601f10611c9857610100808354040283529160200191611cc3565b820191906000526020600020905b815481529060010190602001808311611ca657829003601f168201915b505050505092509650965096509650965096509650919395979092949650565b600160009054906101000a900473ffffffffffffffffffffffffffffffffffffffff1673ffffffffffffffffffffffffffffffffffffffff163373ffffffffffffffffffffffffffffffffffffffff16141515611d3f57600080fd5b600160009054906101000a900473ffffffffffffffffffffffffffffffffffffffff1673ffffffffffffffffffffffffffffffffffffffff166000809054906101000a900473ffffffffffffffffffffffffffffffffffffffff1673ffffffffffffffffffffffffffffffffffffffff167f8be0079c531659141344cd1fd0a4f28419497f9722a3daafe3b4186f6b6457e060405160405180910390a3600160009054906101000a900473ffffffffffffffffffffffffffffffffffffffff166000806101000a81548173ffffffffffffffffffffffffffffffffffffffff021916908373ffffffffffffffffffffffffffffffffffffffff1602179055506000600160006101000a81548173ffffffffffffffffffffffffffffffffffffffff021916908373ffffffffffffffffffffffffffffffffffffffff160217905550565b600260009054906101000a900473ffffffffffffffffffffffffffffffffffffffff1673ffffffffffffffffffffffffffffffffffffffff163373ffffffffffffffffffffffffffffffffffffffff161480611f2a57506000809054906101000a900473ffffffffffffffffffffffffffffffffffffffff1673ffffffffffffffffffffffffffffffffffffffff163373ffffffffffffffffffffffffffffffffffffffff16145b1515611f9e576040517f08c379a00000000000000000000000000000000000000000000000000000000081526004018080602001828103825260168152602001807f4f6e6c79206f776e65722063616e20646f20746869730000000000000000000081525060200191505060405180910390fd5b81600f600085815260200190815260200160002060006101000a81548160ff021916908360ff160217905550806011600085815260200190815260200160002060006101000a81548160ff021916908360ff160217905550505050565b6000809054906101000a900473ffffffffffffffffffffffffffffffffffffffff1681565b600080600654600a60008573ffffffffffffffffffffffffffffffffffffffff1673ffffffffffffffffffffffffffffffffffffffff16815260200190815260200160002054600860008673ffffffffffffffffffffffffffffffffffffffff1673ffffffffffffffffffffffffffffffffffffffff168152602001908152602001600020544203018115156120b257fe5b04600960008573ffffffffffffffffffffffffffffffffffffffff1673ffffffffffffffffffffffffffffffffffffffff1681526020019081526020016000205401119050919050565b600260009054906101000a900473ffffffffffffffffffffffffffffffffffffffff1673ffffffffffffffffffffffffffffffffffffffff163373ffffffffffffffffffffffffffffffffffffffff1614806121a457506000809054906101000a900473ffffffffffffffffffffffffffffffffffffffff1673ffffffffffffffffffffffffffffffffffffffff163373ffffffffffffffffffffffffffffffffffffffff16145b1515612218576040517f08c379a00000000000000000000000000000000000000000000000000000000081526004018080602001828103825260168152602001807f4f6e6c79206f776e65722063616e20646f20746869730000000000000000000081525060200191505060405180910390fd5b6001600b60008373ffffffffffffffffffffffffffffffffffffffff1673ffffffffffffffffffffffffffffffffffffffff1681526020019081526020016000208190555050565b600260009054906101000a900473ffffffffffffffffffffffffffffffffffffffff1673ffffffffffffffffffffffffffffffffffffffff163373ffffffffffffffffffffffffffffffffffffffff16148061230857506000809054906101000a900473ffffffffffffffffffffffffffffffffffffffff1673ffffffffffffffffffffffffffffffffffffffff163373ffffffffffffffffffffffffffffffffffffffff16145b151561237c576040517f08c379a00000000000000000000000000000000000000000000000000000000081526004018080602001828103825260168152602001807f4f6e6c79206f776e65722063616e20646f20746869730000000000000000000081525060200191505060405180910390fd5b60408051908101604052808b73ffffffffffffffffffffffffffffffffffffffff1681526020018a815250600c6000600454815260200190815260200160002060008201518160000160006101000a81548173ffffffffffffffffffffffffffffffffffffffff021916908373ffffffffffffffffffffffffffffffffffffffff160217905550602082015181600101908051906020019061241f92919061326d565b5090505087600e6000600454815260200190815260200160002081905550866010600060045481526020019081526020016000208190555080600f6000600454815260200190815260200160002060006101000a81548160ff021916908360ff1602179055508560126000600454815260200190815260200160002090805190602001906124ae9291906132ed565b508460136000600454815260200190815260200160002090805190602001906124d89291906132ed565b508360146000600454815260200190815260200160002090805190602001906125029291906132ed565b5082601560006004548152602001908152602001600020908051906020019061252c9291906132ed565b508160166000600454815260200190815260200160002090805190602001906125569291906132ed565b50600160046000828254019250508190555050505050505050505050565b6000809054906101000a900473ffffffffffffffffffffffffffffffffffffffff1673ffffffffffffffffffffffffffffffffffffffff163373ffffffffffffffffffffffffffffffffffffffff161415156125cf57600080fd5b80600260006101000a81548173ffffffffffffffffffffffffffffffffffffffff021916908373ffffffffffffffffffffffffffffffffffffffff16021790555050565b600060606000806000600c600087815260200190815260200160002060000160009054906101000a900473ffffffffffffffffffffffffffffffffffffffff16600c6000888152602001908152602001600020600101600e600089815260200190815260200160002054600d60008a815260200190815260200160002054601060008b815260200190815260200160002054838054600181600116156101000203166002900480601f01602080910402602001604051908101604052809291908181526020018280546001816001161561010002031660029004801561273a5780601f1061270f5761010080835404028352916020019161273a565b820191906000526020600020905b81548152906001019060200180831161271d57829003601f168201915b505050505093509450945094509450945091939590929450565b6000600860008373ffffffffffffffffffffffffffffffffffffffff1673ffffffffffffffffffffffffffffffffffffffff168152602001908152602001600020549050919050565b6000809054906101000a900473ffffffffffffffffffffffffffffffffffffffff1673ffffffffffffffffffffffffffffffffffffffff163373ffffffffffffffffffffffffffffffffffffffff161415156127f857600080fd5b80600360146101000a81548160ff02191690831515021790555050565b61281d61336d565b60008061282933610faf565b15151561289e576040517f08c379a000000000000000000000000000000000000000000000000000000000815260040180806020018281038252600c8152602001807f496e20626c61636b6c697374000000000000000000000000000000000000000081525060200191505060405180910390fd5b6128a733612020565b151561291b576040517f08c379a00000000000000000000000000000000000000000000000000000000081526004018080602001828103825260148152602001807f73686f756c642077616974206f6e6520686f757200000000000000000000000081525060200191505060405180910390fd5b600360149054906101000a900460ff16151561299f576040517f08c379a000000000000000000000000000000000000000000000000000000000815260040180806020018281038252600a8152602001807f486176652070617573650000000000000000000000000000000000000000000081525060200191505060405180910390fd5b60016011600086815260200190815260200160002060009054906101000a900460ff1660ff16101515612a3a576040517f08c379a000000000000000000000000000000000000000000000000000000000815260040180806020018281038252600b8152602001807f486176652064656c65746500000000000000000000000000000000000000000081525060200191505060405180910390fd5b60006010600086815260200190815260200160002054600d600087815260200190815260200160002054600e600088815260200190815260200160002054030310151515612af0576040517f08c379a00000000000000000000000000000000000000000000000000000000081526004018080602001828103825260108152602001807f43616e647920737570657220686169720000000000000000000000000000000081525060200191505060405180910390fd5b600c60008581526020019081526020016000206040805190810160405290816000820160009054906101000a900473ffffffffffffffffffffffffffffffffffffffff1673ffffffffffffffffffffffffffffffffffffffff1673ffffffffffffffffffffffffffffffffffffffff168152602001600182018054600181600116156101000203166002900480601f016020809104026020016040519081016040528092919081815260200182805460018160011615610100020316600290048015612bfd5780601f10612bd257610100808354040283529160200191612bfd565b820191906000526020600020905b815481529060010190602001808311612be057829003601f168201915b50505050508152505092506001600760003373ffffffffffffffffffffffffffffffffffffffff1673ffffffffffffffffffffffffffffffffffffffff168152602001908152602001600020600082825401925050819055506001600654600a60003373ffffffffffffffffffffffffffffffffffffffff1673ffffffffffffffffffffffffffffffffffffffff16815260200190815260200160002054600860003373ffffffffffffffffffffffffffffffffffffffff1673ffffffffffffffffffffffffffffffffffffffff16815260200190815260200160002054420301811515612ce757fe5b04600960003373ffffffffffffffffffffffffffffffffffffffff1673ffffffffffffffffffffffffffffffffffffffff168152602001908152602001600020540103915060008210612d3a5781612d3d565b60005b91506001600554038210612d5657600160055403612d58565b815b600960003373ffffffffffffffffffffffffffffffffffffffff1673ffffffffffffffffffffffffffffffffffffffff16815260200190815260200160002081905550600654600a60003373ffffffffffffffffffffffffffffffffffffffff1673ffffffffffffffffffffffffffffffffffffffff16815260200190815260200160002054600860003373ffffffffffffffffffffffffffffffffffffffff1673ffffffffffffffffffffffffffffffffffffffff16815260200190815260200160002054420301811515612e2a57fe5b0660065403600a60003373ffffffffffffffffffffffffffffffffffffffff1673ffffffffffffffffffffffffffffffffffffffff1681526020019081526020016000208190555042600860003373ffffffffffffffffffffffffffffffffffffffff1673ffffffffffffffffffffffffffffffffffffffff168152602001908152602001600020819055506010600085815260200190815260200160002054600d60008681526020019081526020016000205401600d600086815260200190815260200160002081905550826000015190508073ffffffffffffffffffffffffffffffffffffffff1663a9059cbb3360106000888152602001908152602001600020546040518363ffffffff167c0100000000000000000000000000000000000000000000000000000000028152600401808373ffffffffffffffffffffffffffffffffffffffff1673ffffffffffffffffffffffffffffffffffffffff16815260200182815260200192505050602060405180830381600087803b158015612fb357600080fd5b505af1158015612fc7573d6000803e3d6000fd5b505050506040513d6020811015612fdd57600080fd5b81019080805190602001909291905050505050505050565b600260009054906101000a900473ffffffffffffffffffffffffffffffffffffffff1673ffffffffffffffffffffffffffffffffffffffff163373ffffffffffffffffffffffffffffffffffffffff16148061309d57506000809054906101000a900473ffffffffffffffffffffffffffffffffffffffff1673ffffffffffffffffffffffffffffffffffffffff163373ffffffffffffffffffffffffffffffffffffffff16145b1515613111576040517f08c379a00000000000000000000000000000000000000000000000000000000081526004018080602001828103825260168152602001807f4f6e6c79206f776e65722063616e20646f20746869730000000000000000000081525060200191505060405180910390fd5b82600c6000868152602001908152602001600020600101908051906020019061313b9291906132ed565b50816015600086815260200190815260200160002090805190602001906131639291906132ed565b5080601060008681526020019081526020016000208190555050505050565b600160009054906101000a900473ffffffffffffffffffffffffffffffffffffffff1681565b6000809054906101000a900473ffffffffffffffffffffffffffffffffffffffff1673ffffffffffffffffffffffffffffffffffffffff163373ffffffffffffffffffffffffffffffffffffffff1614151561320357600080fd5b80600160006101000a81548173ffffffffffffffffffffffffffffffffffffffff021916908373ffffffffffffffffffffffffffffffffffffffff16021790555050565b600360009054906101000a900473ffffffffffffffffffffffffffffffffffffffff1681565b828054600181600116156101000203166002900490600052602060002090601f016020900481019282601f106132ae57805160ff19168380011785556132dc565b828001600101855582156132dc579182015b828111156132db5782518255916020019190600101906132c0565b5b5090506132e9919061339d565b5090565b828054600181600116156101000203166002900490600052602060002090601f016020900481019282601f1061332e57805160ff191683800117855561335c565b8280016001018555821561335c579182015b8281111561335b578251825591602001919060010190613340565b5b509050613369919061339d565b5090565b6040805190810160405280600073ffffffffffffffffffffffffffffffffffffffff168152602001606081525090565b6133bf91905b808211156133bb5760008160009055506001016133a3565b5090565b905600a165627a7a723058202bdeaf4d2cd575105d38e6bd8fd7c35e43eba03ed47371d57f39af8d3410e65c0029",
  "source": "pragma solidity ^0.4.23;\n\n// ----------------------------------------------------------------------------\n// Safe maths\n// ----------------------------------------------------------------------------\nlibrary SafeMath {\n    function add(uint a, uint b) internal pure returns (uint c) {\n        c = a + b;\n        require(c >= a);\n    }\n    function sub(uint a, uint b) internal pure returns (uint c) {\n        require(b <= a);\n        c = a - b;\n    }\n    function mul(uint a, uint b) internal pure returns (uint c) {\n        c = a * b;\n        require(a == 0 || c / a == b);\n    }\n    function div(uint a, uint b) internal pure returns (uint c) {\n        require(b > 0);\n        c = a / b;\n    }\n}\n\n\n// ----------------------------------------------------------------------------\n// ERC Token Standard #20 Interface\n// https://github.com/ethereum/EIPs/blob/master/EIPS/eip-20.md\n// ----------------------------------------------------------------------------\ncontract TRC20Interface {\n    function totalSupply() public view returns (uint);\n    function balanceOf(address tokenOwner) public view returns (uint balance);\n    function allowance(address tokenOwner, address spender) public view returns (uint remaining);\n    function transfer(address to, uint tokens) public returns (bool success);\n    function approve(address spender, uint tokens) public returns (bool success);\n    function transferFrom(address from, address to, uint tokens) public returns (bool success);\n\n    event Transfer(address indexed from, address indexed to, uint tokens);\n    event Approval(address indexed tokenOwner, address indexed spender, uint tokens);\n}\n\n\n// ----------------------------------------------------------------------------\n// Owned contract\n// ----------------------------------------------------------------------------\ncontract Owned {\n    address public owner;\n    address public newOwner;\n\n    event OwnershipTransferred(address indexed _from, address indexed _to);\n\n    constructor() public {\n        owner = msg.sender;\n    }\n\n    modifier onlyOwner {\n        require(msg.sender == owner);\n        _;\n    }\n\n    function transferOwnership(address _newOwner) public onlyOwner {\n        newOwner = _newOwner;\n    }\n    function acceptOwnership() public {\n        require(msg.sender == newOwner);\n        emit OwnershipTransferred(owner, newOwner);\n        owner = newOwner;\n        newOwner = address(0);\n    }\n}\n\ncontract CandyBox is Owned {\n    /*\n    * checks only candyManager address is calling\n    */\n    modifier onlyCandyManager {\n        require(\n            msg.sender == roleCandyManager ||\n            msg.sender == owner\n        ,\"Only owner can do this\");\n        _;\n    }\n    address public roleCandyManager;\n\n    TRC20Interface public token;\n    bool isPause;\n    // Number of candy\n    uint public candyIdIndex_;\n    // Maximum number of users available.\n    uint maxReceiveNumber;\n    // recovery limit time 3600 second\n    uint recoveryLimitTime;\n    // user has receive numbers\n    mapping(address => uint) receiveNumbers;\n    // user last receive time\n    mapping(address => uint) receiveLastTime;\n    // use left receive nubers, one hour recovery one\n    mapping(address => uint) leftReceiveNumbers;\n    // Less than one hour recovery time , second\n    mapping(address => uint) leftRecoveryTime;\n    // user blacklist\n    mapping(address => uint) blacklist;\n\n\n    // candys\n    mapping(uint => Candy) candays;\n    // candy has been receive amount\n    mapping(uint => uint256) candyHasReceived;\n    // The user can receive total token of the candy  \n    mapping(uint => uint256) candyTotal;\n    // The order of the candy token, the numbers are big on the top\n    mapping(uint => uint8) candyOrder;\n    // Number of times each time\n    mapping(uint => uint256) candyOnce;\n    // Has it been deleted? 1 is deleted\n    mapping(uint => uint8) candyIsDeleted;\n\n    mapping(uint => string) candyImageUrl;\n    mapping(uint => string) candyBgUrl;\n    mapping(uint => string) candyTitle;\n    mapping(uint => string) candyDesc;\n    mapping(uint => string) candyLink;\n\n    constructor() public {\n        candyIdIndex_ = 1;\n        maxReceiveNumber = 2;\n        recoveryLimitTime = 3600;\n        isPause = true;\n        roleCandyManager = msg.sender;\n    }\n\n    struct Candy {\n        address addr;\n        string name;\n    }    \n\n    function setPause(bool pause) public onlyOwner {\n        isPause = pause;\n    }\n\n    function setCandyManager(address addr) public onlyOwner {\n        roleCandyManager = addr;\n    }\n\n    function addCandy(\n        address addr,\n        string memory name,\n        uint256 total,\n        uint256 once,\n        string memory imageUrl,\n        string memory bgUrl,\n        string memory title,\n        string memory introduction,\n        string memory link,\n        uint8 order\n    ) \n    public \n    onlyCandyManager\n    {\n        candays[candyIdIndex_] = Candy(addr, name);\n        candyTotal[candyIdIndex_] = total;\n        candyOnce[candyIdIndex_] = once;\n        candyOrder[candyIdIndex_] = order;\n\n        candyImageUrl[candyIdIndex_] = imageUrl;\n        candyBgUrl[candyIdIndex_] = bgUrl;\n        candyTitle[candyIdIndex_] = title;\n        candyDesc[candyIdIndex_] = introduction;\n        candyLink[candyIdIndex_] = link;\n\n        candyIdIndex_ += 1;\n    }\n\n    function editCandy(\n        uint id,\n        address addr,\n        string memory name,\n        uint256 total,\n        uint256 once,\n        string memory imageUrl,\n        string memory bgUrl,\n        string memory title,\n        string memory introduction,\n        string memory link,\n        uint8 order\n    ) \n    public \n    onlyCandyManager\n    {\n        candays[id] = Candy(addr, name);\n        candyTotal[candyIdIndex_] = total;\n        candyOnce[candyIdIndex_] = once;\n        candyOrder[candyIdIndex_] = order;\n\n        candyImageUrl[candyIdIndex_] = imageUrl;\n        candyBgUrl[candyIdIndex_] = bgUrl;\n        candyTitle[candyIdIndex_] = title;\n        candyDesc[candyIdIndex_] = introduction;\n        candyLink[candyIdIndex_] = link;\n\n    }\n\n    function delCandy(uint id) public onlyCandyManager {\n        candyIsDeleted[id] = 1;\n    }\n\n    function editCandy(uint id, string memory name, string memory introduction, uint256 once) public onlyCandyManager() {\n        candays[id].name = name;\n        candyDesc[id] = introduction;\n        candyOnce[id] = once;\n    }\n    function editPubCandy(uint id, uint8 order, uint8 isDeleted) public onlyCandyManager() {\n        candyOrder[id] = order;\n        candyIsDeleted[id] = isDeleted;\n    }\n    function getCandy(uint id)\n        public \n        view \n        returns (\n            address,\n            string memory,\n            uint256,\n            uint256,\n            uint\n        ) {\n        return (\n            candays[id].addr,\n            candays[id].name,\n            candyTotal[id],\n            candyHasReceived[id],\n            candyOnce[id]\n        );\n    }\n    function getCandyDetail(uint _id)\n        public \n        view \n        returns (\n            string memory,\n            string memory,\n            string memory,\n            string memory,\n            string memory,\n            uint8,\n            uint8\n        ) {\n        return (\n            candyImageUrl[_id],\n            candyBgUrl[_id],\n            candyTitle[_id],\n            candyDesc[_id],\n            candyLink[_id],\n            candyIsDeleted[_id],\n            candyOrder[_id]\n        );\n    }\n    // User click and  receive the candy.\n    function receive(uint id) public payable {\n        require(!inBlacklist(msg.sender), 'In blacklist');\n        require(canReceive(msg.sender), 'should wait one hour');\n        require(isPause, 'Have pause');\n        require(candyIsDeleted[id] < 1, 'Have delete');\n        require(candyTotal[id]- candyHasReceived[id] - candyOnce[id] >= 0, 'Candy super hair');\n        \n        \n        Candy memory candy = candays[id];\n        receiveNumbers[msg.sender] += 1;\n        uint lrn = (leftReceiveNumbers[msg.sender] + (now - receiveLastTime[msg.sender] + leftRecoveryTime[msg.sender]) / recoveryLimitTime) - 1;\n        lrn = lrn < 0 ? 0: lrn;\n        leftReceiveNumbers[msg.sender] = lrn < maxReceiveNumber - 1 ? lrn : maxReceiveNumber - 1 ;\n        leftRecoveryTime[msg.sender] = recoveryLimitTime - (now - receiveLastTime[msg.sender] + leftRecoveryTime[msg.sender]) % recoveryLimitTime;\n        receiveLastTime[msg.sender] = now;\n        candyHasReceived[id] = candyHasReceived[id] + candyOnce[id];\n        TRC20Interface t = TRC20Interface(candy.addr);\n        t.transfer(msg.sender, candyOnce[id]);\n    }\n    // Retrieve candy\n    function transferCandy(address _token, address _to, uint256 _amount) public onlyCandyManager returns (bool success){\n        TRC20Interface t = TRC20Interface(_token);\n        t.transfer(_to, _amount);\n        return true;\n    }\n    // Total candys in the box.\n    function total() public view returns (uint number){\n        return candyIdIndex_;\n    }\n    function maxNumbers() public view returns (uint number){\n        return maxReceiveNumber;\n    }\n    // User has receive candy numbers.\n    function myNumbers(address addr) public view returns (uint number){\n        return receiveNumbers[addr];\n    }\n    function myLastTime(address addr) public view returns (uint time){\n        return receiveLastTime[addr];\n    }\n    // User last receive info.\n    function myLastReceive(address addr) public view returns (uint num, uint time, uint left){\n        return (leftReceiveNumbers[addr], receiveLastTime[addr], leftRecoveryTime[addr]);\n    }\n    // Add some user to blacklist\n    function addBlacklist(address addr) public onlyCandyManager {\n        blacklist[addr] = 1;\n    }\n    // Delete user from blacklist\n    function delBlacklist(address addr) public onlyCandyManager {\n        delete blacklist[addr];\n    }\n\n    function inBlacklist(address addr) public view returns (bool isin) {\n        return blacklist[addr] > 0;\n    }\n\n    function canReceive(address addr) public view returns (bool can) {\n        return (leftReceiveNumbers[addr] + (now - receiveLastTime[addr] + leftRecoveryTime[addr]) / recoveryLimitTime) > 0;\n    }\n}",
  "sourcePath": "E:\\blockchain\\tron-candybox\\contracts\\CandyBox.sol",
  "compiler": {
    "name": "solc",
    "version": "0.4.24-develop.2018.8.28+commit.3ba0cdec.mod.Emscripten.clang"
  },
  "schemaVersion": "2.0.1",
  "updatedAt": "2018-12-13T03:09:04.494Z"
}