{
  "contractName": "token",
  "abi": [
    {
      "constant": false,
      "inputs": [
        {
          "name": "receiver",
          "type": "address"
        },
        {
          "name": "amount",
          "type": "uint256"
        }
      ],
      "name": "transfer",
      "outputs": [],
      "payable": false,
      "stateMutability": "nonpayable",
      "type": "function"
    }
  ],
  "bytecode": "0x608060405234801561001057600080fd5b5060be8061001f6000396000f300608060405260043610603f576000357c0100000000000000000000000000000000000000000000000000000000900463ffffffff168063a9059cbb146044575b600080fd5b348015604f57600080fd5b50608c600480360381019080803573ffffffffffffffffffffffffffffffffffffffff16906020019092919080359060200190929190505050608e565b005b50505600a165627a7a72305820a6f4dfbb146f319f15d8bdb5f7dc128081f67c642da9c4c18789dc0b5ba689300029",
  "source": "pragma solidity ^0.4.23;\n\ncontract token { \n    function transfer(address receiver, uint amount) public { \n        receiver; \n        amount; \n    } \n} //transfer方法的接口说明\ncontract TokenTransfer{\n    token public wowToken;\n    \n    constructor(address addr) public {\n       wowToken = token(addr); //实例化一个token\n    }\n\n    function setToken(address t) public {\n        wowToken = token(t);\n    }\n\n    function tokenTransfer(address _to, uint _amt) public {\n        wowToken.transfer(_to,_amt); //调用token的transfer方法\n    }\n}",
  "sourcePath": "E:\\blockchain\\tron-candybox\\contracts\\TokenTransfer.sol",
  "compiler": {
    "name": "solc",
    "version": "0.4.24-develop.2018.8.28+commit.3ba0cdec.mod.Emscripten.clang"
  },
  "schemaVersion": "2.0.1",
  "updatedAt": "2018-12-07T09:47:57.691Z"
}